{
  "contractName": "GolfPunks",
  "abi": [
    {
      "inputs": [],
      "stateMutability": "nonpayable",
      "type": "constructor"
    },
    {
      "anonymous": false,
      "inputs": [
        {
          "indexed": true,
          "internalType": "address",
          "name": "owner",
          "type": "address"
        },
        {
          "indexed": true,
          "internalType": "address",
          "name": "approved",
          "type": "address"
        },
        {
          "indexed": true,
          "internalType": "uint256",
          "name": "tokenId",
          "type": "uint256"
        }
      ],
      "name": "Approval",
      "type": "event"
    },
    {
      "anonymous": false,
      "inputs": [
        {
          "indexed": true,
          "internalType": "address",
          "name": "owner",
          "type": "address"
        },
        {
          "indexed": true,
          "internalType": "address",
          "name": "operator",
          "type": "address"
        },
        {
          "indexed": false,
          "internalType": "bool",
          "name": "approved",
          "type": "bool"
        }
      ],
      "name": "ApprovalForAll",
      "type": "event"
    },
    {
      "anonymous": false,
      "inputs": [
        {
          "indexed": true,
          "internalType": "address",
          "name": "previousOwner",
          "type": "address"
        },
        {
          "indexed": true,
          "internalType": "address",
          "name": "newOwner",
          "type": "address"
        }
      ],
      "name": "OwnershipTransferred",
      "type": "event"
    },
    {
      "anonymous": false,
      "inputs": [
        {
          "indexed": false,
          "internalType": "address",
          "name": "account",
          "type": "address"
        }
      ],
      "name": "Paused",
      "type": "event"
    },
    {
      "anonymous": false,
      "inputs": [
        {
          "indexed": true,
          "internalType": "address",
          "name": "from",
          "type": "address"
        },
        {
          "indexed": true,
          "internalType": "address",
          "name": "to",
          "type": "address"
        },
        {
          "indexed": true,
          "internalType": "uint256",
          "name": "tokenId",
          "type": "uint256"
        }
      ],
      "name": "Transfer",
      "type": "event"
    },
    {
      "anonymous": false,
      "inputs": [
        {
          "indexed": false,
          "internalType": "address",
          "name": "account",
          "type": "address"
        }
      ],
      "name": "Unpaused",
      "type": "event"
    },
    {
      "inputs": [],
      "name": "BUY_LIMIT_PER_TX",
      "outputs": [
        {
          "internalType": "uint256",
          "name": "",
          "type": "uint256"
        }
      ],
      "stateMutability": "view",
      "type": "function"
    },
    {
      "inputs": [],
      "name": "MAX_NFT_COUNT",
      "outputs": [
        {
          "internalType": "uint256",
          "name": "",
          "type": "uint256"
        }
      ],
      "stateMutability": "view",
      "type": "function"
    },
    {
      "inputs": [],
      "name": "NFT_PRICE",
      "outputs": [
        {
          "internalType": "uint256",
          "name": "",
          "type": "uint256"
        }
      ],
      "stateMutability": "view",
      "type": "function"
    },
    {
      "inputs": [
        {
          "internalType": "address",
          "name": "to",
          "type": "address"
        },
        {
          "internalType": "uint256",
          "name": "tokenId",
          "type": "uint256"
        }
      ],
      "name": "approve",
      "outputs": [],
      "stateMutability": "nonpayable",
      "type": "function"
    },
    {
      "inputs": [
        {
          "internalType": "address",
          "name": "owner",
          "type": "address"
        }
      ],
      "name": "balanceOf",
      "outputs": [
        {
          "internalType": "uint256",
          "name": "",
          "type": "uint256"
        }
      ],
      "stateMutability": "view",
      "type": "function"
    },
    {
      "inputs": [
        {
          "internalType": "uint256",
          "name": "tokenId",
          "type": "uint256"
        }
      ],
      "name": "getApproved",
      "outputs": [
        {
          "internalType": "address",
          "name": "",
          "type": "address"
        }
      ],
      "stateMutability": "view",
      "type": "function"
    },
    {
      "inputs": [
        {
          "internalType": "address",
          "name": "owner",
          "type": "address"
        },
        {
          "internalType": "address",
          "name": "operator",
          "type": "address"
        }
      ],
      "name": "isApprovedForAll",
      "outputs": [
        {
          "internalType": "bool",
          "name": "",
          "type": "bool"
        }
      ],
      "stateMutability": "view",
      "type": "function"
    },
    {
      "inputs": [],
      "name": "isRevealation",
      "outputs": [
        {
          "internalType": "bool",
          "name": "",
          "type": "bool"
        }
      ],
      "stateMutability": "view",
      "type": "function"
    },
    {
      "inputs": [],
      "name": "name",
      "outputs": [
        {
          "internalType": "string",
          "name": "",
          "type": "string"
        }
      ],
      "stateMutability": "view",
      "type": "function"
    },
    {
      "inputs": [],
      "name": "owner",
      "outputs": [
        {
          "internalType": "address",
          "name": "",
          "type": "address"
        }
      ],
      "stateMutability": "view",
      "type": "function"
    },
    {
      "inputs": [
        {
          "internalType": "uint256",
          "name": "tokenId",
          "type": "uint256"
        }
      ],
      "name": "ownerOf",
      "outputs": [
        {
          "internalType": "address",
          "name": "",
          "type": "address"
        }
      ],
      "stateMutability": "view",
      "type": "function"
    },
    {
      "inputs": [],
      "name": "paused",
      "outputs": [
        {
          "internalType": "bool",
          "name": "",
          "type": "bool"
        }
      ],
      "stateMutability": "view",
      "type": "function"
    },
    {
      "inputs": [],
      "name": "renounceOwnership",
      "outputs": [],
      "stateMutability": "nonpayable",
      "type": "function"
    },
    {
      "inputs": [
        {
          "internalType": "address",
          "name": "from",
          "type": "address"
        },
        {
          "internalType": "address",
          "name": "to",
          "type": "address"
        },
        {
          "internalType": "uint256",
          "name": "tokenId",
          "type": "uint256"
        }
      ],
      "name": "safeTransferFrom",
      "outputs": [],
      "stateMutability": "nonpayable",
      "type": "function"
    },
    {
      "inputs": [
        {
          "internalType": "address",
          "name": "from",
          "type": "address"
        },
        {
          "internalType": "address",
          "name": "to",
          "type": "address"
        },
        {
          "internalType": "uint256",
          "name": "tokenId",
          "type": "uint256"
        },
        {
          "internalType": "bytes",
          "name": "_data",
          "type": "bytes"
        }
      ],
      "name": "safeTransferFrom",
      "outputs": [],
      "stateMutability": "nonpayable",
      "type": "function"
    },
    {
      "inputs": [
        {
          "internalType": "address",
          "name": "operator",
          "type": "address"
        },
        {
          "internalType": "bool",
          "name": "approved",
          "type": "bool"
        }
      ],
      "name": "setApprovalForAll",
      "outputs": [],
      "stateMutability": "nonpayable",
      "type": "function"
    },
    {
      "inputs": [],
      "name": "symbol",
      "outputs": [
        {
          "internalType": "string",
          "name": "",
          "type": "string"
        }
      ],
      "stateMutability": "view",
      "type": "function"
    },
    {
      "inputs": [
        {
          "internalType": "uint256",
          "name": "index",
          "type": "uint256"
        }
      ],
      "name": "tokenByIndex",
      "outputs": [
        {
          "internalType": "uint256",
          "name": "",
          "type": "uint256"
        }
      ],
      "stateMutability": "view",
      "type": "function"
    },
    {
      "inputs": [
        {
          "internalType": "address",
          "name": "owner",
          "type": "address"
        },
        {
          "internalType": "uint256",
          "name": "index",
          "type": "uint256"
        }
      ],
      "name": "tokenOfOwnerByIndex",
      "outputs": [
        {
          "internalType": "uint256",
          "name": "",
          "type": "uint256"
        }
      ],
      "stateMutability": "view",
      "type": "function"
    },
    {
      "inputs": [],
      "name": "totalSupply",
      "outputs": [
        {
          "internalType": "uint256",
          "name": "",
          "type": "uint256"
        }
      ],
      "stateMutability": "view",
      "type": "function"
    },
    {
      "inputs": [
        {
          "internalType": "address",
          "name": "from",
          "type": "address"
        },
        {
          "internalType": "address",
          "name": "to",
          "type": "address"
        },
        {
          "internalType": "uint256",
          "name": "tokenId",
          "type": "uint256"
        }
      ],
      "name": "transferFrom",
      "outputs": [],
      "stateMutability": "nonpayable",
      "type": "function"
    },
    {
      "inputs": [
        {
          "internalType": "address",
          "name": "newOwner",
          "type": "address"
        }
      ],
      "name": "transferOwnership",
      "outputs": [],
      "stateMutability": "nonpayable",
      "type": "function"
    },
    {
      "inputs": [
        {
          "internalType": "address",
          "name": "_to",
          "type": "address"
        }
      ],
      "name": "withdraw",
      "outputs": [],
      "stateMutability": "nonpayable",
      "type": "function"
    },
    {
      "inputs": [
        {
          "internalType": "uint256",
          "name": "_numOfTokens",
          "type": "uint256"
        }
      ],
      "name": "mintNFT",
      "outputs": [],
      "stateMutability": "payable",
      "type": "function"
    },
    {
      "inputs": [
        {
          "internalType": "uint256",
          "name": "tokenId",
          "type": "uint256"
        }
      ],
      "name": "tokenURI",
      "outputs": [
        {
          "internalType": "string",
          "name": "",
          "type": "string"
        }
      ],
      "stateMutability": "view",
      "type": "function"
    },
    {
      "inputs": [
        {
          "internalType": "string",
          "name": "_baseURI",
          "type": "string"
        }
      ],
      "name": "setURI",
      "outputs": [],
      "stateMutability": "nonpayable",
      "type": "function"
    },
    {
      "inputs": [],
      "name": "pause",
      "outputs": [],
      "stateMutability": "nonpayable",
      "type": "function"
    },
    {
      "inputs": [],
      "name": "unpause",
      "outputs": [],
      "stateMutability": "nonpayable",
      "type": "function"
    },
    {
      "inputs": [],
      "name": "revealation",
      "outputs": [
        {
          "internalType": "bool",
          "name": "",
          "type": "bool"
        }
      ],
      "stateMutability": "view",
      "type": "function"
    },
    {
      "inputs": [],
      "name": "activeRevealation",
      "outputs": [],
      "stateMutability": "nonpayable",
      "type": "function"
    },
    {
      "inputs": [],
      "name": "unactiveRevealation",
      "outputs": [],
      "stateMutability": "nonpayable",
      "type": "function"
    },
    {
      "inputs": [
        {
          "internalType": "bytes4",
          "name": "interfaceId",
          "type": "bytes4"
        }
      ],
      "name": "supportsInterface",
      "outputs": [
        {
          "internalType": "bool",
          "name": "",
          "type": "bool"
        }
      ],
      "stateMutability": "view",
      "type": "function"
    }
  ],
  "bytecode": "0x60806040526001600c60006101000a81548160ff0219169083151502179055506115b3600d5566f8b0a10e470000600e55600a600f553480156200004257600080fd5b506040518060400160405280600981526020017f476f6c6650756e6b7300000000000000000000000000000000000000000000008152506040518060400160405280600481526020017f4d494c46000000000000000000000000000000000000000000000000000000008152508160009080519060200190620000c7929190620001f2565b508060019080519060200190620000e0929190620001f2565b50505062000103620000f76200012460201b60201c565b6200012c60201b60201c565b6000600a60146101000a81548160ff02191690831515021790555062000307565b600033905090565b6000600a60009054906101000a900473ffffffffffffffffffffffffffffffffffffffff16905081600a60006101000a81548173ffffffffffffffffffffffffffffffffffffffff021916908373ffffffffffffffffffffffffffffffffffffffff1602179055508173ffffffffffffffffffffffffffffffffffffffff168173ffffffffffffffffffffffffffffffffffffffff167f8be0079c531659141344cd1fd0a4f28419497f9722a3daafe3b4186f6b6457e060405160405180910390a35050565b8280546200020090620002d1565b90600052602060002090601f01602090048101928262000224576000855562000270565b82601f106200023f57805160ff191683800117855562000270565b8280016001018555821562000270579182015b828111156200026f57825182559160200191906001019062000252565b5b5090506200027f919062000283565b5090565b5b808211156200029e57600081600090555060010162000284565b5090565b7f4e487b7100000000000000000000000000000000000000000000000000000000600052602260045260246000fd5b60006002820490506001821680620002ea57607f821691505b60208210811415620003015762000300620002a2565b5b50919050565b6142e980620003176000396000f3fe6080604052600436106101e35760003560e01c8063676dd56311610102578063952905d411610095578063c87b56dd11610064578063c87b56dd14610687578063e748e07c146106c4578063e985e9c5146106ef578063f2fde38b1461072c576101e3565b8063952905d4146105f357806395d89b411461060a578063a22cb46514610635578063b88d4fde1461065e576101e3565b8063816d789b116100d1578063816d789b1461056a5780638456cb59146105955780638da5cb5b146105ac57806392642744146105d7576101e3565b8063676dd563146104c05780636e1a1e81146104eb57806370a0823114610516578063715018a614610553576101e3565b80632bcbee2c1161017a5780634f6ccce7116101495780634f6ccce7146103f257806351cff8d91461042f5780635c975abb146104585780636352211e14610483576101e3565b80632bcbee2c1461034a5780632f745c59146103755780633f4ba83a146103b257806342842e0e146103c9576101e3565b8063095ea7b3116101b6578063095ea7b3146102b657806318160ddd146102df5780631f63ca2f1461030a57806323b872dd14610321576101e3565b806301ffc9a7146101e857806302fe53051461022557806306fdde031461024e578063081812fc14610279575b600080fd5b3480156101f457600080fd5b5061020f600480360381019061020a9190612b29565b610755565b60405161021c9190612b71565b60405180910390f35b34801561023157600080fd5b5061024c60048036038101906102479190612cd2565b610767565b005b34801561025a57600080fd5b506102636107fd565b6040516102709190612da3565b60405180910390f35b34801561028557600080fd5b506102a0600480360381019061029b9190612dfb565b61088f565b6040516102ad9190612e69565b60405180910390f35b3480156102c257600080fd5b506102dd60048036038101906102d89190612eb0565b610914565b005b3480156102eb57600080fd5b506102f4610a2c565b6040516103019190612eff565b60405180910390f35b34801561031657600080fd5b5061031f610a39565b005b34801561032d57600080fd5b5061034860048036038101906103439190612f1a565b610ad2565b005b34801561035657600080fd5b5061035f610b32565b60405161036c9190612b71565b60405180910390f35b34801561038157600080fd5b5061039c60048036038101906103979190612eb0565b610b49565b6040516103a99190612eff565b60405180910390f35b3480156103be57600080fd5b506103c7610bee565b005b3480156103d557600080fd5b506103f060048036038101906103eb9190612f1a565b610c74565b005b3480156103fe57600080fd5b5061041960048036038101906104149190612dfb565b610c94565b6040516104269190612eff565b60405180910390f35b34801561043b57600080fd5b5061045660048036038101906104519190612f6d565b610d05565b005b34801561046457600080fd5b5061046d610dd1565b60405161047a9190612b71565b60405180910390f35b34801561048f57600080fd5b506104aa60048036038101906104a59190612dfb565b610de8565b6040516104b79190612e69565b60405180910390f35b3480156104cc57600080fd5b506104d5610e9a565b6040516104e29190612eff565b60405180910390f35b3480156104f757600080fd5b50610500610ea0565b60405161050d9190612eff565b60405180910390f35b34801561052257600080fd5b5061053d60048036038101906105389190612f6d565b610ea6565b60405161054a9190612eff565b60405180910390f35b34801561055f57600080fd5b50610568610f5e565b005b34801561057657600080fd5b5061057f610fe6565b60405161058c9190612b71565b60405180910390f35b3480156105a157600080fd5b506105aa610ff9565b005b3480156105b857600080fd5b506105c161107f565b6040516105ce9190612e69565b60405180910390f35b6105f160048036038101906105ec9190612dfb565b6110a9565b005b3480156105ff57600080fd5b5061060861121d565b005b34801561061657600080fd5b5061061f6112b6565b60405161062c9190612da3565b60405180910390f35b34801561064157600080fd5b5061065c60048036038101906106579190612fc6565b611348565b005b34801561066a57600080fd5b50610685600480360381019061068091906130a7565b6114c9565b005b34801561069357600080fd5b506106ae60048036038101906106a99190612dfb565b61152b565b6040516106bb9190612da3565b60405180910390f35b3480156106d057600080fd5b506106d9611647565b6040516106e69190612eff565b60405180910390f35b3480156106fb57600080fd5b506107166004803603810190610711919061312a565b61164d565b6040516107239190612b71565b60405180910390f35b34801561073857600080fd5b50610753600480360381019061074e9190612f6d565b6116e1565b005b6000610760826117d9565b9050919050565b61076f611853565b73ffffffffffffffffffffffffffffffffffffffff1661078d61107f565b73ffffffffffffffffffffffffffffffffffffffff16146107e3576040517f08c379a00000000000000000000000000000000000000000000000000000000081526004016107da906131b6565b60405180910390fd5b80600b90805190602001906107f9929190612a1a565b5050565b60606000805461080c90613205565b80601f016020809104026020016040519081016040528092919081815260200182805461083890613205565b80156108855780601f1061085a57610100808354040283529160200191610885565b820191906000526020600020905b81548152906001019060200180831161086857829003601f168201915b5050505050905090565b600061089a8261185b565b6108d9576040517f08c379a00000000000000000000000000000000000000000000000000000000081526004016108d0906132a9565b60405180910390fd5b6004600083815260200190815260200160002060009054906101000a900473ffffffffffffffffffffffffffffffffffffffff169050919050565b600061091f82610de8565b90508073ffffffffffffffffffffffffffffffffffffffff168373ffffffffffffffffffffffffffffffffffffffff161415610990576040517f08c379a00000000000000000000000000000000000000000000000000000000081526004016109879061333b565b60405180910390fd5b8073ffffffffffffffffffffffffffffffffffffffff166109af611853565b73ffffffffffffffffffffffffffffffffffffffff1614806109de57506109dd816109d8611853565b61164d565b5b610a1d576040517f08c379a0000000000000000000000000000000000000000000000000000000008152600401610a14906133cd565b60405180910390fd5b610a2783836118c7565b505050565b6000600880549050905090565b610a41611853565b73ffffffffffffffffffffffffffffffffffffffff16610a5f61107f565b73ffffffffffffffffffffffffffffffffffffffff1614610ab5576040517f08c379a0000000000000000000000000000000000000000000000000000000008152600401610aac906131b6565b60405180910390fd5b6000600c60006101000a81548160ff021916908315150217905550565b610ae3610add611853565b82611980565b610b22576040517f08c379a0000000000000000000000000000000000000000000000000000000008152600401610b199061345f565b60405180910390fd5b610b2d838383611a5e565b505050565b6000600c60009054906101000a900460ff16905090565b6000610b5483610ea6565b8210610b95576040517f08c379a0000000000000000000000000000000000000000000000000000000008152600401610b8c906134f1565b60405180910390fd5b600660008473ffffffffffffffffffffffffffffffffffffffff1673ffffffffffffffffffffffffffffffffffffffff168152602001908152602001600020600083815260200190815260200160002054905092915050565b610bf6611853565b73ffffffffffffffffffffffffffffffffffffffff16610c1461107f565b73ffffffffffffffffffffffffffffffffffffffff1614610c6a576040517f08c379a0000000000000000000000000000000000000000000000000000000008152600401610c61906131b6565b60405180910390fd5b610c72611cba565b565b610c8f838383604051806020016040528060008152506114c9565b505050565b6000610c9e610a2c565b8210610cdf576040517f08c379a0000000000000000000000000000000000000000000000000000000008152600401610cd690613583565b60405180910390fd5b60088281548110610cf357610cf26135a3565b5b90600052602060002001549050919050565b610d0d611853565b73ffffffffffffffffffffffffffffffffffffffff16610d2b61107f565b73ffffffffffffffffffffffffffffffffffffffff1614610d81576040517f08c379a0000000000000000000000000000000000000000000000000000000008152600401610d78906131b6565b60405180910390fd5b60004790508173ffffffffffffffffffffffffffffffffffffffff166108fc829081150290604051600060405180830381858888f19350505050158015610dcc573d6000803e3d6000fd5b505050565b6000600a60149054906101000a900460ff16905090565b6000806002600084815260200190815260200160002060009054906101000a900473ffffffffffffffffffffffffffffffffffffffff169050600073ffffffffffffffffffffffffffffffffffffffff168173ffffffffffffffffffffffffffffffffffffffff161415610e91576040517f08c379a0000000000000000000000000000000000000000000000000000000008152600401610e8890613644565b60405180910390fd5b80915050919050565b600e5481565b600d5481565b60008073ffffffffffffffffffffffffffffffffffffffff168273ffffffffffffffffffffffffffffffffffffffff161415610f17576040517f08c379a0000000000000000000000000000000000000000000000000000000008152600401610f0e906136d6565b60405180910390fd5b600360008373ffffffffffffffffffffffffffffffffffffffff1673ffffffffffffffffffffffffffffffffffffffff168152602001908152602001600020549050919050565b610f66611853565b73ffffffffffffffffffffffffffffffffffffffff16610f8461107f565b73ffffffffffffffffffffffffffffffffffffffff1614610fda576040517f08c379a0000000000000000000000000000000000000000000000000000000008152600401610fd1906131b6565b60405180910390fd5b610fe46000611d5c565b565b600c60009054906101000a900460ff1681565b611001611853565b73ffffffffffffffffffffffffffffffffffffffff1661101f61107f565b73ffffffffffffffffffffffffffffffffffffffff1614611075576040517f08c379a000000000000000000000000000000000000000000000000000000000815260040161106c906131b6565b60405180910390fd5b61107d611e22565b565b6000600a60009054906101000a900473ffffffffffffffffffffffffffffffffffffffff16905090565b6110b1610dd1565b156110f1576040517f08c379a00000000000000000000000000000000000000000000000000000000081526004016110e890613742565b60405180910390fd5b600f54811115611136576040517f08c379a000000000000000000000000000000000000000000000000000000000815260040161112d906137ae565b60405180910390fd5b600d5461115382611145610a2c565b611ec590919063ffffffff16565b1115611194576040517f08c379a000000000000000000000000000000000000000000000000000000000815260040161118b90613840565b60405180910390fd5b346111aa82600e54611edb90919063ffffffff16565b146111ea576040517f08c379a00000000000000000000000000000000000000000000000000000000081526004016111e1906138ac565b60405180910390fd5b60005b818110156112195761120633611201610a2c565b611ef1565b8080611211906138fb565b9150506111ed565b5050565b611225611853565b73ffffffffffffffffffffffffffffffffffffffff1661124361107f565b73ffffffffffffffffffffffffffffffffffffffff1614611299576040517f08c379a0000000000000000000000000000000000000000000000000000000008152600401611290906131b6565b60405180910390fd5b6001600c60006101000a81548160ff021916908315150217905550565b6060600180546112c590613205565b80601f01602080910402602001604051908101604052809291908181526020018280546112f190613205565b801561133e5780601f106113135761010080835404028352916020019161133e565b820191906000526020600020905b81548152906001019060200180831161132157829003601f168201915b5050505050905090565b611350611853565b73ffffffffffffffffffffffffffffffffffffffff168273ffffffffffffffffffffffffffffffffffffffff1614156113be576040517f08c379a00000000000000000000000000000000000000000000000000000000081526004016113b590613990565b60405180910390fd5b80600560006113cb611853565b73ffffffffffffffffffffffffffffffffffffffff1673ffffffffffffffffffffffffffffffffffffffff16815260200190815260200160002060008473ffffffffffffffffffffffffffffffffffffffff1673ffffffffffffffffffffffffffffffffffffffff16815260200190815260200160002060006101000a81548160ff0219169083151502179055508173ffffffffffffffffffffffffffffffffffffffff16611478611853565b73ffffffffffffffffffffffffffffffffffffffff167f17307eab39ab6107e8899845ad3d59bd9653f200f220920489ca2b5937696c31836040516114bd9190612b71565b60405180910390a35050565b6114da6114d4611853565b83611980565b611519576040517f08c379a00000000000000000000000000000000000000000000000000000000081526004016115109061345f565b60405180910390fd5b61152584848484611f0f565b50505050565b6060600c60009054906101000a900460ff1661157c576040517f08c379a0000000000000000000000000000000000000000000000000000000008152600401611573906139fc565b60405180910390fd5b6115858261185b565b6115c4576040517f08c379a00000000000000000000000000000000000000000000000000000000081526004016115bb90613a8e565b60405180910390fd5b6000600b80546115d390613205565b905011611615576040517f08c379a000000000000000000000000000000000000000000000000000000000815260040161160c90613afa565b60405180910390fd5b600b61162083611f6b565b604051602001611631929190613bea565b6040516020818303038152906040529050919050565b600f5481565b6000600560008473ffffffffffffffffffffffffffffffffffffffff1673ffffffffffffffffffffffffffffffffffffffff16815260200190815260200160002060008373ffffffffffffffffffffffffffffffffffffffff1673ffffffffffffffffffffffffffffffffffffffff16815260200190815260200160002060009054906101000a900460ff16905092915050565b6116e9611853565b73ffffffffffffffffffffffffffffffffffffffff1661170761107f565b73ffffffffffffffffffffffffffffffffffffffff161461175d576040517f08c379a0000000000000000000000000000000000000000000000000000000008152600401611754906131b6565b60405180910390fd5b600073ffffffffffffffffffffffffffffffffffffffff168173ffffffffffffffffffffffffffffffffffffffff1614156117cd576040517f08c379a00000000000000000000000000000000000000000000000000000000081526004016117c490613c80565b60405180910390fd5b6117d681611d5c565b50565b60007f780e9d63000000000000000000000000000000000000000000000000000000007bffffffffffffffffffffffffffffffffffffffffffffffffffffffff1916827bffffffffffffffffffffffffffffffffffffffffffffffffffffffff1916148061184c575061184b826120cc565b5b9050919050565b600033905090565b60008073ffffffffffffffffffffffffffffffffffffffff166002600084815260200190815260200160002060009054906101000a900473ffffffffffffffffffffffffffffffffffffffff1673ffffffffffffffffffffffffffffffffffffffff1614159050919050565b816004600083815260200190815260200160002060006101000a81548173ffffffffffffffffffffffffffffffffffffffff021916908373ffffffffffffffffffffffffffffffffffffffff160217905550808273ffffffffffffffffffffffffffffffffffffffff1661193a83610de8565b73ffffffffffffffffffffffffffffffffffffffff167f8c5be1e5ebec7d5bd14f71427d1e84f3dd0314c0f7b2291e5b200ac8c7c3b92560405160405180910390a45050565b600061198b8261185b565b6119ca576040517f08c379a00000000000000000000000000000000000000000000000000000000081526004016119c190613d12565b60405180910390fd5b60006119d583610de8565b90508073ffffffffffffffffffffffffffffffffffffffff168473ffffffffffffffffffffffffffffffffffffffff161480611a4457508373ffffffffffffffffffffffffffffffffffffffff16611a2c8461088f565b73ffffffffffffffffffffffffffffffffffffffff16145b80611a555750611a54818561164d565b5b91505092915050565b8273ffffffffffffffffffffffffffffffffffffffff16611a7e82610de8565b73ffffffffffffffffffffffffffffffffffffffff1614611ad4576040517f08c379a0000000000000000000000000000000000000000000000000000000008152600401611acb90613da4565b60405180910390fd5b600073ffffffffffffffffffffffffffffffffffffffff168273ffffffffffffffffffffffffffffffffffffffff161415611b44576040517f08c379a0000000000000000000000000000000000000000000000000000000008152600401611b3b90613e36565b60405180910390fd5b611b4f8383836121ae565b611b5a6000826118c7565b6001600360008573ffffffffffffffffffffffffffffffffffffffff1673ffffffffffffffffffffffffffffffffffffffff1681526020019081526020016000206000828254611baa9190613e56565b925050819055506001600360008473ffffffffffffffffffffffffffffffffffffffff1673ffffffffffffffffffffffffffffffffffffffff1681526020019081526020016000206000828254611c019190613e8a565b92505081905550816002600083815260200190815260200160002060006101000a81548173ffffffffffffffffffffffffffffffffffffffff021916908373ffffffffffffffffffffffffffffffffffffffff160217905550808273ffffffffffffffffffffffffffffffffffffffff168473ffffffffffffffffffffffffffffffffffffffff167fddf252ad1be2c89b69c2b068fc378daa952ba7f163c4a11628f55a4df523b3ef60405160405180910390a4505050565b611cc2610dd1565b611d01576040517f08c379a0000000000000000000000000000000000000000000000000000000008152600401611cf890613f2c565b60405180910390fd5b6000600a60146101000a81548160ff0219169083151502179055507f5db9ee0a495bf2e6ff9c91a7834c1ba4fdd244a5e8aa4e537bd38aeae4b073aa611d45611853565b604051611d529190612e69565b60405180910390a1565b6000600a60009054906101000a900473ffffffffffffffffffffffffffffffffffffffff16905081600a60006101000a81548173ffffffffffffffffffffffffffffffffffffffff021916908373ffffffffffffffffffffffffffffffffffffffff1602179055508173ffffffffffffffffffffffffffffffffffffffff168173ffffffffffffffffffffffffffffffffffffffff167f8be0079c531659141344cd1fd0a4f28419497f9722a3daafe3b4186f6b6457e060405160405180910390a35050565b611e2a610dd1565b15611e6a576040517f08c379a0000000000000000000000000000000000000000000000000000000008152600401611e6190613742565b60405180910390fd5b6001600a60146101000a81548160ff0219169083151502179055507f62e78cea01bee320cd4e420270b5ea74000d11b0c9f74754ebdbfc544b05a258611eae611853565b604051611ebb9190612e69565b60405180910390a1565b60008183611ed39190613e8a565b905092915050565b60008183611ee99190613f4c565b905092915050565b611f0b8282604051806020016040528060008152506121be565b5050565b611f1a848484611a5e565b611f2684848484612219565b611f65576040517f08c379a0000000000000000000000000000000000000000000000000000000008152600401611f5c90614018565b60405180910390fd5b50505050565b60606000821415611fb3576040518060400160405280600181526020017f300000000000000000000000000000000000000000000000000000000000000081525090506120c7565b600082905060005b60008214611fe5578080611fce906138fb565b915050600a82611fde9190614067565b9150611fbb565b60008167ffffffffffffffff81111561200157612000612ba7565b5b6040519080825280601f01601f1916602001820160405280156120335781602001600182028036833780820191505090505b5090505b600085146120c05760018261204c9190613e56565b9150600a8561205b9190614098565b60306120679190613e8a565b60f81b81838151811061207d5761207c6135a3565b5b60200101907effffffffffffffffffffffffffffffffffffffffffffffffffffffffffffff1916908160001a905350600a856120b99190614067565b9450612037565b8093505050505b919050565b60007f80ac58cd000000000000000000000000000000000000000000000000000000007bffffffffffffffffffffffffffffffffffffffffffffffffffffffff1916827bffffffffffffffffffffffffffffffffffffffffffffffffffffffff1916148061219757507f5b5e139f000000000000000000000000000000000000000000000000000000007bffffffffffffffffffffffffffffffffffffffffffffffffffffffff1916827bffffffffffffffffffffffffffffffffffffffffffffffffffffffff1916145b806121a757506121a6826123b0565b5b9050919050565b6121b983838361241a565b505050565b6121c8838361252e565b6121d56000848484612219565b612214576040517f08c379a000000000000000000000000000000000000000000000000000000000815260040161220b90614018565b60405180910390fd5b505050565b600061223a8473ffffffffffffffffffffffffffffffffffffffff166126fc565b156123a3578373ffffffffffffffffffffffffffffffffffffffff1663150b7a02612263611853565b8786866040518563ffffffff1660e01b8152600401612285949392919061411e565b602060405180830381600087803b15801561229f57600080fd5b505af19250505080156122d057506040513d601f19601f820116820180604052508101906122cd919061417f565b60015b612353573d8060008114612300576040519150601f19603f3d011682016040523d82523d6000602084013e612305565b606091505b5060008151141561234b576040517f08c379a000000000000000000000000000000000000000000000000000000000815260040161234290614018565b60405180910390fd5b805181602001fd5b63150b7a0260e01b7bffffffffffffffffffffffffffffffffffffffffffffffffffffffff1916817bffffffffffffffffffffffffffffffffffffffffffffffffffffffff1916149150506123a8565b600190505b949350505050565b60007f01ffc9a7000000000000000000000000000000000000000000000000000000007bffffffffffffffffffffffffffffffffffffffffffffffffffffffff1916827bffffffffffffffffffffffffffffffffffffffffffffffffffffffff1916149050919050565b61242583838361270f565b600073ffffffffffffffffffffffffffffffffffffffff168373ffffffffffffffffffffffffffffffffffffffff1614156124685761246381612714565b6124a7565b8173ffffffffffffffffffffffffffffffffffffffff168373ffffffffffffffffffffffffffffffffffffffff16146124a6576124a5838261275d565b5b5b600073ffffffffffffffffffffffffffffffffffffffff168273ffffffffffffffffffffffffffffffffffffffff1614156124ea576124e5816128ca565b612529565b8273ffffffffffffffffffffffffffffffffffffffff168273ffffffffffffffffffffffffffffffffffffffff161461252857612527828261299b565b5b5b505050565b600073ffffffffffffffffffffffffffffffffffffffff168273ffffffffffffffffffffffffffffffffffffffff16141561259e576040517f08c379a0000000000000000000000000000000000000000000000000000000008152600401612595906141f8565b60405180910390fd5b6125a78161185b565b156125e7576040517f08c379a00000000000000000000000000000000000000000000000000000000081526004016125de90614264565b60405180910390fd5b6125f3600083836121ae565b6001600360008473ffffffffffffffffffffffffffffffffffffffff1673ffffffffffffffffffffffffffffffffffffffff16815260200190815260200160002060008282546126439190613e8a565b92505081905550816002600083815260200190815260200160002060006101000a81548173ffffffffffffffffffffffffffffffffffffffff021916908373ffffffffffffffffffffffffffffffffffffffff160217905550808273ffffffffffffffffffffffffffffffffffffffff16600073ffffffffffffffffffffffffffffffffffffffff167fddf252ad1be2c89b69c2b068fc378daa952ba7f163c4a11628f55a4df523b3ef60405160405180910390a45050565b600080823b905060008111915050919050565b505050565b6008805490506009600083815260200190815260200160002081905550600881908060018154018082558091505060019003906000526020600020016000909190919091505550565b6000600161276a84610ea6565b6127749190613e56565b9050600060076000848152602001908152602001600020549050818114612859576000600660008673ffffffffffffffffffffffffffffffffffffffff1673ffffffffffffffffffffffffffffffffffffffff168152602001908152602001600020600084815260200190815260200160002054905080600660008773ffffffffffffffffffffffffffffffffffffffff1673ffffffffffffffffffffffffffffffffffffffff168152602001908152602001600020600084815260200190815260200160002081905550816007600083815260200190815260200160002081905550505b6007600084815260200190815260200160002060009055600660008573ffffffffffffffffffffffffffffffffffffffff1673ffffffffffffffffffffffffffffffffffffffff16815260200190815260200160002060008381526020019081526020016000206000905550505050565b600060016008805490506128de9190613e56565b905060006009600084815260200190815260200160002054905060006008838154811061290e5761290d6135a3565b5b9060005260206000200154905080600883815481106129305761292f6135a3565b5b90600052602060002001819055508160096000838152602001908152602001600020819055506009600085815260200190815260200160002060009055600880548061297f5761297e614284565b5b6001900381819060005260206000200160009055905550505050565b60006129a683610ea6565b905081600660008573ffffffffffffffffffffffffffffffffffffffff1673ffffffffffffffffffffffffffffffffffffffff168152602001908152602001600020600083815260200190815260200160002081905550806007600084815260200190815260200160002081905550505050565b828054612a2690613205565b90600052602060002090601f016020900481019282612a485760008555612a8f565b82601f10612a6157805160ff1916838001178555612a8f565b82800160010185558215612a8f579182015b82811115612a8e578251825591602001919060010190612a73565b5b509050612a9c9190612aa0565b5090565b5b80821115612ab9576000816000905550600101612aa1565b5090565b6000604051905090565b600080fd5b600080fd5b60007fffffffff0000000000000000000000000000000000000000000000000000000082169050919050565b612b0681612ad1565b8114612b1157600080fd5b50565b600081359050612b2381612afd565b92915050565b600060208284031215612b3f57612b3e612ac7565b5b6000612b4d84828501612b14565b91505092915050565b60008115159050919050565b612b6b81612b56565b82525050565b6000602082019050612b866000830184612b62565b92915050565b600080fd5b600080fd5b6000601f19601f8301169050919050565b7f4e487b7100000000000000000000000000000000000000000000000000000000600052604160045260246000fd5b612bdf82612b96565b810181811067ffffffffffffffff82111715612bfe57612bfd612ba7565b5b80604052505050565b6000612c11612abd565b9050612c1d8282612bd6565b919050565b600067ffffffffffffffff821115612c3d57612c3c612ba7565b5b612c4682612b96565b9050602081019050919050565b82818337600083830152505050565b6000612c75612c7084612c22565b612c07565b905082815260208101848484011115612c9157612c90612b91565b5b612c9c848285612c53565b509392505050565b600082601f830112612cb957612cb8612b8c565b5b8135612cc9848260208601612c62565b91505092915050565b600060208284031215612ce857612ce7612ac7565b5b600082013567ffffffffffffffff811115612d0657612d05612acc565b5b612d1284828501612ca4565b91505092915050565b600081519050919050565b600082825260208201905092915050565b60005b83811015612d55578082015181840152602081019050612d3a565b83811115612d64576000848401525b50505050565b6000612d7582612d1b565b612d7f8185612d26565b9350612d8f818560208601612d37565b612d9881612b96565b840191505092915050565b60006020820190508181036000830152612dbd8184612d6a565b905092915050565b6000819050919050565b612dd881612dc5565b8114612de357600080fd5b50565b600081359050612df581612dcf565b92915050565b600060208284031215612e1157612e10612ac7565b5b6000612e1f84828501612de6565b91505092915050565b600073ffffffffffffffffffffffffffffffffffffffff82169050919050565b6000612e5382612e28565b9050919050565b612e6381612e48565b82525050565b6000602082019050612e7e6000830184612e5a565b92915050565b612e8d81612e48565b8114612e9857600080fd5b50565b600081359050612eaa81612e84565b92915050565b60008060408385031215612ec757612ec6612ac7565b5b6000612ed585828601612e9b565b9250506020612ee685828601612de6565b9150509250929050565b612ef981612dc5565b82525050565b6000602082019050612f146000830184612ef0565b92915050565b600080600060608486031215612f3357612f32612ac7565b5b6000612f4186828701612e9b565b9350506020612f5286828701612e9b565b9250506040612f6386828701612de6565b9150509250925092565b600060208284031215612f8357612f82612ac7565b5b6000612f9184828501612e9b565b91505092915050565b612fa381612b56565b8114612fae57600080fd5b50565b600081359050612fc081612f9a565b92915050565b60008060408385031215612fdd57612fdc612ac7565b5b6000612feb85828601612e9b565b9250506020612ffc85828601612fb1565b9150509250929050565b600067ffffffffffffffff82111561302157613020612ba7565b5b61302a82612b96565b9050602081019050919050565b600061304a61304584613006565b612c07565b90508281526020810184848401111561306657613065612b91565b5b613071848285612c53565b509392505050565b600082601f83011261308e5761308d612b8c565b5b813561309e848260208601613037565b91505092915050565b600080600080608085870312156130c1576130c0612ac7565b5b60006130cf87828801612e9b565b94505060206130e087828801612e9b565b93505060406130f187828801612de6565b925050606085013567ffffffffffffffff81111561311257613111612acc565b5b61311e87828801613079565b91505092959194509250565b6000806040838503121561314157613140612ac7565b5b600061314f85828601612e9b565b925050602061316085828601612e9b565b9150509250929050565b7f4f776e61626c653a2063616c6c6572206973206e6f7420746865206f776e6572600082015250565b60006131a0602083612d26565b91506131ab8261316a565b602082019050919050565b600060208201905081810360008301526131cf81613193565b9050919050565b7f4e487b7100000000000000000000000000000000000000000000000000000000600052602260045260246000fd5b6000600282049050600182168061321d57607f821691505b60208210811415613231576132306131d6565b5b50919050565b7f4552433732313a20617070726f76656420717565727920666f72206e6f6e657860008201527f697374656e7420746f6b656e0000000000000000000000000000000000000000602082015250565b6000613293602c83612d26565b915061329e82613237565b604082019050919050565b600060208201905081810360008301526132c281613286565b9050919050565b7f4552433732313a20617070726f76616c20746f2063757272656e74206f776e6560008201527f7200000000000000000000000000000000000000000000000000000000000000602082015250565b6000613325602183612d26565b9150613330826132c9565b604082019050919050565b6000602082019050818103600083015261335481613318565b9050919050565b7f4552433732313a20617070726f76652063616c6c6572206973206e6f74206f7760008201527f6e6572206e6f7220617070726f76656420666f7220616c6c0000000000000000602082015250565b60006133b7603883612d26565b91506133c28261335b565b604082019050919050565b600060208201905081810360008301526133e6816133aa565b9050919050565b7f4552433732313a207472616e736665722063616c6c6572206973206e6f74206f60008201527f776e6572206e6f7220617070726f766564000000000000000000000000000000602082015250565b6000613449603183612d26565b9150613454826133ed565b604082019050919050565b600060208201905081810360008301526134788161343c565b9050919050565b7f455243373231456e756d657261626c653a206f776e657220696e646578206f7560008201527f74206f6620626f756e6473000000000000000000000000000000000000000000602082015250565b60006134db602b83612d26565b91506134e68261347f565b604082019050919050565b6000602082019050818103600083015261350a816134ce565b9050919050565b7f455243373231456e756d657261626c653a20676c6f62616c20696e646578206f60008201527f7574206f6620626f756e64730000000000000000000000000000000000000000602082015250565b600061356d602c83612d26565b915061357882613511565b604082019050919050565b6000602082019050818103600083015261359c81613560565b9050919050565b7f4e487b7100000000000000000000000000000000000000000000000000000000600052603260045260246000fd5b7f4552433732313a206f776e657220717565727920666f72206e6f6e657869737460008201527f656e7420746f6b656e0000000000000000000000000000000000000000000000602082015250565b600061362e602983612d26565b9150613639826135d2565b604082019050919050565b6000602082019050818103600083015261365d81613621565b9050919050565b7f4552433732313a2062616c616e636520717565727920666f7220746865207a6560008201527f726f206164647265737300000000000000000000000000000000000000000000602082015250565b60006136c0602a83612d26565b91506136cb82613664565b604082019050919050565b600060208201905081810360008301526136ef816136b3565b9050919050565b7f5061757361626c653a2070617573656400000000000000000000000000000000600082015250565b600061372c601083612d26565b9150613737826136f6565b602082019050919050565b6000602082019050818103600083015261375b8161371f565b9050919050565b7f43616e2774206d696e742061626f7665206c696d697400000000000000000000600082015250565b6000613798601683612d26565b91506137a382613762565b602082019050919050565b600060208201905081810360008301526137c78161378b565b9050919050565b7f507572636861736520776f756c6420657863656564206d617820737570706c7960008201527f206f66204e465473000000000000000000000000000000000000000000000000602082015250565b600061382a602883612d26565b9150613835826137ce565b604082019050919050565b600060208201905081810360008301526138598161381d565b9050919050565b7f45746865722076616c75652073656e74206973206e6f7420636f727265637400600082015250565b6000613896601f83612d26565b91506138a182613860565b602082019050919050565b600060208201905081810360008301526138c581613889565b9050919050565b7f4e487b7100000000000000000000000000000000000000000000000000000000600052601160045260246000fd5b600061390682612dc5565b91507fffffffffffffffffffffffffffffffffffffffffffffffffffffffffffffffff821415613939576139386138cc565b5b600182019050919050565b7f4552433732313a20617070726f766520746f2063616c6c657200000000000000600082015250565b600061397a601983612d26565b915061398582613944565b602082019050919050565b600060208201905081810360008301526139a98161396d565b9050919050565b7f43616e2774207365652069740000000000000000000000000000000000000000600082015250565b60006139e6600c83612d26565b91506139f1826139b0565b602082019050919050565b60006020820190508181036000830152613a15816139d9565b9050919050565b7f4552433732314d657461646174613a2055524920717565727920666f72206e6f60008201527f6e6578697374656e7420746f6b656e0000000000000000000000000000000000602082015250565b6000613a78602f83612d26565b9150613a8382613a1c565b604082019050919050565b60006020820190508181036000830152613aa781613a6b565b9050919050565b7f42617365555249206973206e6f7420636f727265637400000000000000000000600082015250565b6000613ae4601683612d26565b9150613aef82613aae565b602082019050919050565b60006020820190508181036000830152613b1381613ad7565b9050919050565b600081905092915050565b60008190508160005260206000209050919050565b60008154613b4781613205565b613b518186613b1a565b94506001821660008114613b6c5760018114613b7d57613bb0565b60ff19831686528186019350613bb0565b613b8685613b25565b60005b83811015613ba857815481890152600182019150602081019050613b89565b838801955050505b50505092915050565b6000613bc482612d1b565b613bce8185613b1a565b9350613bde818560208601612d37565b80840191505092915050565b6000613bf68285613b3a565b9150613c028284613bb9565b91508190509392505050565b7f4f776e61626c653a206e6577206f776e657220697320746865207a65726f206160008201527f6464726573730000000000000000000000000000000000000000000000000000602082015250565b6000613c6a602683612d26565b9150613c7582613c0e565b604082019050919050565b60006020820190508181036000830152613c9981613c5d565b9050919050565b7f4552433732313a206f70657261746f7220717565727920666f72206e6f6e657860008201527f697374656e7420746f6b656e0000000000000000000000000000000000000000602082015250565b6000613cfc602c83612d26565b9150613d0782613ca0565b604082019050919050565b60006020820190508181036000830152613d2b81613cef565b9050919050565b7f4552433732313a207472616e73666572206f6620746f6b656e2074686174206960008201527f73206e6f74206f776e0000000000000000000000000000000000000000000000602082015250565b6000613d8e602983612d26565b9150613d9982613d32565b604082019050919050565b60006020820190508181036000830152613dbd81613d81565b9050919050565b7f4552433732313a207472616e7366657220746f20746865207a65726f2061646460008201527f7265737300000000000000000000000000000000000000000000000000000000602082015250565b6000613e20602483612d26565b9150613e2b82613dc4565b604082019050919050565b60006020820190508181036000830152613e4f81613e13565b9050919050565b6000613e6182612dc5565b9150613e6c83612dc5565b925082821015613e7f57613e7e6138cc565b5b828203905092915050565b6000613e9582612dc5565b9150613ea083612dc5565b9250827fffffffffffffffffffffffffffffffffffffffffffffffffffffffffffffffff03821115613ed557613ed46138cc565b5b828201905092915050565b7f5061757361626c653a206e6f7420706175736564000000000000000000000000600082015250565b6000613f16601483612d26565b9150613f2182613ee0565b602082019050919050565b60006020820190508181036000830152613f4581613f09565b9050919050565b6000613f5782612dc5565b9150613f6283612dc5565b9250817fffffffffffffffffffffffffffffffffffffffffffffffffffffffffffffffff0483118215151615613f9b57613f9a6138cc565b5b828202905092915050565b7f4552433732313a207472616e7366657220746f206e6f6e20455243373231526560008201527f63656976657220696d706c656d656e7465720000000000000000000000000000602082015250565b6000614002603283612d26565b915061400d82613fa6565b604082019050919050565b6000602082019050818103600083015261403181613ff5565b9050919050565b7f4e487b7100000000000000000000000000000000000000000000000000000000600052601260045260246000fd5b600061407282612dc5565b915061407d83612dc5565b92508261408d5761408c614038565b5b828204905092915050565b60006140a382612dc5565b91506140ae83612dc5565b9250826140be576140bd614038565b5b828206905092915050565b600081519050919050565b600082825260208201905092915050565b60006140f0826140c9565b6140fa81856140d4565b935061410a818560208601612d37565b61411381612b96565b840191505092915050565b60006080820190506141336000830187612e5a565b6141406020830186612e5a565b61414d6040830185612ef0565b818103606083015261415f81846140e5565b905095945050505050565b60008151905061417981612afd565b92915050565b60006020828403121561419557614194612ac7565b5b60006141a38482850161416a565b91505092915050565b7f4552433732313a206d696e7420746f20746865207a65726f2061646472657373600082015250565b60006141e2602083612d26565b91506141ed826141ac565b602082019050919050565b60006020820190508181036000830152614211816141d5565b9050919050565b7f4552433732313a20746f6b656e20616c7265616479206d696e74656400000000600082015250565b600061424e601c83612d26565b915061425982614218565b602082019050919050565b6000602082019050818103600083015261427d81614241565b9050919050565b7f4e487b7100000000000000000000000000000000000000000000000000000000600052603160045260246000fdfea2646970667358221220e4a6f0223d564d32dc6b357729a59f45e5711f52874b5f2d9ab0cf24e810fb2664736f6c63430008090033",
  "immutableReferences": {},
  "source": "// SPDX-License-Identifier: MIT\r\n\r\n/****************************************************************\r\n ######                                    #    ######  ####### \r\n #     # ######  ####  ###### #    #      # #   #     # #       \r\n #     # #      #    # #      ##   #     #   #  #     # #       \r\n #     # #####  #      #####  # #  #    #     # ######  #####   \r\n #     # #      #  ### #      #  # #    ####### #       #       \r\n #     # #      #    # #      #   ##    #     # #       #       \r\n ######  ######  ####  ###### #    #    #     # #       ####### \r\n*****************************************************************/\r\n\r\npragma solidity ^0.8.0;\r\n\r\nimport \"@openzeppelin/contracts/token/ERC721/ERC721.sol\";\r\nimport \"@openzeppelin/contracts/token/ERC721/extensions/ERC721Enumerable.sol\";\r\nimport \"@openzeppelin/contracts/utils/math/SafeMath.sol\";\r\nimport \"@openzeppelin/contracts/access/Ownable.sol\";\r\nimport \"@openzeppelin/contracts/utils/Strings.sol\";\r\nimport \"@openzeppelin/contracts/security/Pausable.sol\";\r\n\r\ncontract GolfPunks is ERC721, ERC721Enumerable, Ownable, Pausable {\r\n    using SafeMath for uint256;\r\n    using Strings for uint256;\r\n\r\n    string  private baseURI;\r\n    bool    public  isRevealation = true; \r\n    \r\n    uint256 public MAX_NFT_COUNT = 5555;\r\n    uint256 public NFT_PRICE = 0.07 ether;\r\n    uint256 public BUY_LIMIT_PER_TX = 10;\r\n\r\n    constructor() ERC721(\"GolfPunks\", \"MILF\") {}\r\n\r\n    /*\r\n     * Function to withdraw collected amount during minting\r\n    */\r\n    function withdraw(address _to) public onlyOwner {\r\n        uint balance = address(this).balance;\r\n        payable(_to).transfer(balance);\r\n    }\r\n\r\n    /*\r\n     * Function to mint new NFTs\r\n     * It is payable. Amount is calculated as per (NFT_PRICE * _numOfTokens)\r\n    */\r\n    function mintNFT(uint256 _numOfTokens) public payable whenNotPaused {\r\n        require(_numOfTokens <= BUY_LIMIT_PER_TX, \"Can't mint above limit\");\r\n        require(totalSupply().add(_numOfTokens) <= MAX_NFT_COUNT, \"Purchase would exceed max supply of NFTs\");\r\n        require(NFT_PRICE.mul(_numOfTokens) == msg.value, \"Ether value sent is not correct\");\r\n\r\n        for(uint i=0; i < _numOfTokens; i++) {\r\n            _safeMint(msg.sender, totalSupply());\r\n        }\r\n    }\r\n\r\n    /*\r\n     * Function to get token URI of given token ID\r\n     * URI will be blank untill totalSupply reaches MAX_NFT_COUNT\r\n    */\r\n    function tokenURI(uint256 tokenId) public view virtual override returns (string memory) {\r\n        require(isRevealation, \"Can't see it\");\r\n        require(_exists(tokenId), \"ERC721Metadata: URI query for nonexistent token\");\r\n        require(bytes(baseURI).length > 0, \"BaseURI is not correct\");\r\n    \r\n        return string(abi.encodePacked(baseURI, tokenId.toString()));\r\n    }\r\n\r\n    /*\r\n     * Function to set Base URI \r\n    */\r\n    function setURI(string memory _baseURI) external onlyOwner {\r\n        baseURI = _baseURI;\r\n    }\r\n\r\n    /*\r\n     * Function to pause \r\n    */\r\n    function pause() external onlyOwner {\r\n        _pause();\r\n    }\r\n\r\n    /*\r\n     * Function to unpause \r\n    */\r\n    function unpause() external onlyOwner {\r\n        _unpause();\r\n    }\r\n\r\n    /*\r\n     * Function to get revealation\r\n    */\r\n    function revealation() public view returns (bool) {\r\n        return isRevealation;\r\n    }\r\n\r\n    /*\r\n     * Function to active revealation\r\n    */\r\n    function activeRevealation() external onlyOwner {\r\n        isRevealation = true;\r\n    }\r\n\r\n    /*\r\n     * Function to unactive revealation\r\n    */\r\n    function unactiveRevealation() external onlyOwner {\r\n        isRevealation = false;\r\n    }\r\n\r\n    // Standard functions to be overridden \r\n    function _beforeTokenTransfer(address from, address to, uint256 tokenId) internal override(ERC721, \r\n    ERC721Enumerable) {\r\n        super._beforeTokenTransfer(from, to, tokenId);\r\n    }\r\n\r\n    function supportsInterface(bytes4 interfaceId) public view override(ERC721, ERC721Enumerable) returns (bool) {\r\n        return super.supportsInterface(interfaceId);\r\n    }\r\n}",
  "sourcePath": "E:\\working\\13-blockchain\\cryptogolf-react-bsc-NFT\\contracts\\GolfPunks.sol",
  "compiler": {
    "name": "solc",
    "version": "0.8.9+commit.e5eed63a.Emscripten.clang"
  },
  "schemaVersion": "3.4.3",
  "updatedAt": "2021-10-14T03:58:50.364Z",
  "devdoc": {
    "kind": "dev",
    "methods": {
      "approve(address,uint256)": {
        "details": "See {IERC721-approve}."
      },
      "balanceOf(address)": {
        "details": "See {IERC721-balanceOf}."
      },
      "getApproved(uint256)": {
        "details": "See {IERC721-getApproved}."
      },
      "isApprovedForAll(address,address)": {
        "details": "See {IERC721-isApprovedForAll}."
      },
      "name()": {
        "details": "See {IERC721Metadata-name}."
      },
      "owner()": {
        "details": "Returns the address of the current owner."
      },
      "ownerOf(uint256)": {
        "details": "See {IERC721-ownerOf}."
      },
      "paused()": {
        "details": "Returns true if the contract is paused, and false otherwise."
      },
      "renounceOwnership()": {
        "details": "Leaves the contract without owner. It will not be possible to call `onlyOwner` functions anymore. Can only be called by the current owner. NOTE: Renouncing ownership will leave the contract without an owner, thereby removing any functionality that is only available to the owner."
      },
      "safeTransferFrom(address,address,uint256)": {
        "details": "See {IERC721-safeTransferFrom}."
      },
      "safeTransferFrom(address,address,uint256,bytes)": {
        "details": "See {IERC721-safeTransferFrom}."
      },
      "setApprovalForAll(address,bool)": {
        "details": "See {IERC721-setApprovalForAll}."
      },
      "symbol()": {
        "details": "See {IERC721Metadata-symbol}."
      },
      "tokenByIndex(uint256)": {
        "details": "See {IERC721Enumerable-tokenByIndex}."
      },
      "tokenOfOwnerByIndex(address,uint256)": {
        "details": "See {IERC721Enumerable-tokenOfOwnerByIndex}."
      },
      "tokenURI(uint256)": {
        "details": "See {IERC721Metadata-tokenURI}."
      },
      "totalSupply()": {
        "details": "See {IERC721Enumerable-totalSupply}."
      },
      "transferFrom(address,address,uint256)": {
        "details": "See {IERC721-transferFrom}."
      },
      "transferOwnership(address)": {
        "details": "Transfers ownership of the contract to a new account (`newOwner`). Can only be called by the current owner."
      }
    },
    "version": 1
  },
  "userdoc": {
    "kind": "user",
    "methods": {},
    "version": 1
  }
}