{
  "contractName": "GolfPunks",
  "abi": [
    {
      "inputs": [
        {
          "internalType": "string",
          "name": "baseURI",
          "type": "string"
        }
      ],
      "stateMutability": "nonpayable",
      "type": "constructor"
    },
    {
      "anonymous": false,
      "inputs": [
        {
          "indexed": true,
          "internalType": "address",
          "name": "owner",
          "type": "address"
        },
        {
          "indexed": true,
          "internalType": "address",
          "name": "approved",
          "type": "address"
        },
        {
          "indexed": true,
          "internalType": "uint256",
          "name": "tokenId",
          "type": "uint256"
        }
      ],
      "name": "Approval",
      "type": "event"
    },
    {
      "anonymous": false,
      "inputs": [
        {
          "indexed": true,
          "internalType": "address",
          "name": "owner",
          "type": "address"
        },
        {
          "indexed": true,
          "internalType": "address",
          "name": "operator",
          "type": "address"
        },
        {
          "indexed": false,
          "internalType": "bool",
          "name": "approved",
          "type": "bool"
        }
      ],
      "name": "ApprovalForAll",
      "type": "event"
    },
    {
      "anonymous": false,
      "inputs": [
        {
          "indexed": true,
          "internalType": "uint256",
          "name": "id",
          "type": "uint256"
        }
      ],
      "name": "CreatePenguin",
      "type": "event"
    },
    {
      "anonymous": false,
      "inputs": [
        {
          "indexed": true,
          "internalType": "address",
          "name": "previousOwner",
          "type": "address"
        },
        {
          "indexed": true,
          "internalType": "address",
          "name": "newOwner",
          "type": "address"
        }
      ],
      "name": "OwnershipTransferred",
      "type": "event"
    },
    {
      "anonymous": false,
      "inputs": [
        {
          "indexed": false,
          "internalType": "address",
          "name": "account",
          "type": "address"
        }
      ],
      "name": "Paused",
      "type": "event"
    },
    {
      "anonymous": false,
      "inputs": [
        {
          "indexed": true,
          "internalType": "address",
          "name": "from",
          "type": "address"
        },
        {
          "indexed": true,
          "internalType": "address",
          "name": "to",
          "type": "address"
        },
        {
          "indexed": true,
          "internalType": "uint256",
          "name": "tokenId",
          "type": "uint256"
        }
      ],
      "name": "Transfer",
      "type": "event"
    },
    {
      "anonymous": false,
      "inputs": [
        {
          "indexed": false,
          "internalType": "address",
          "name": "account",
          "type": "address"
        }
      ],
      "name": "Unpaused",
      "type": "event"
    },
    {
      "inputs": [],
      "name": "MAX_BY_MINT",
      "outputs": [
        {
          "internalType": "uint256",
          "name": "",
          "type": "uint256"
        }
      ],
      "stateMutability": "view",
      "type": "function"
    },
    {
      "inputs": [],
      "name": "MAX_ELEMENTS",
      "outputs": [
        {
          "internalType": "uint256",
          "name": "",
          "type": "uint256"
        }
      ],
      "stateMutability": "view",
      "type": "function"
    },
    {
      "inputs": [],
      "name": "PRICE",
      "outputs": [
        {
          "internalType": "uint256",
          "name": "",
          "type": "uint256"
        }
      ],
      "stateMutability": "view",
      "type": "function"
    },
    {
      "inputs": [
        {
          "internalType": "address",
          "name": "to",
          "type": "address"
        },
        {
          "internalType": "uint256",
          "name": "tokenId",
          "type": "uint256"
        }
      ],
      "name": "approve",
      "outputs": [],
      "stateMutability": "nonpayable",
      "type": "function"
    },
    {
      "inputs": [
        {
          "internalType": "address",
          "name": "owner",
          "type": "address"
        }
      ],
      "name": "balanceOf",
      "outputs": [
        {
          "internalType": "uint256",
          "name": "",
          "type": "uint256"
        }
      ],
      "stateMutability": "view",
      "type": "function"
    },
    {
      "inputs": [],
      "name": "baseTokenURI",
      "outputs": [
        {
          "internalType": "string",
          "name": "",
          "type": "string"
        }
      ],
      "stateMutability": "view",
      "type": "function"
    },
    {
      "inputs": [
        {
          "internalType": "uint256",
          "name": "tokenId",
          "type": "uint256"
        }
      ],
      "name": "burn",
      "outputs": [],
      "stateMutability": "nonpayable",
      "type": "function"
    },
    {
      "inputs": [],
      "name": "creatorAddress",
      "outputs": [
        {
          "internalType": "address",
          "name": "",
          "type": "address"
        }
      ],
      "stateMutability": "view",
      "type": "function"
    },
    {
      "inputs": [],
      "name": "devAddress",
      "outputs": [
        {
          "internalType": "address",
          "name": "",
          "type": "address"
        }
      ],
      "stateMutability": "view",
      "type": "function"
    },
    {
      "inputs": [
        {
          "internalType": "uint256",
          "name": "tokenId",
          "type": "uint256"
        }
      ],
      "name": "getApproved",
      "outputs": [
        {
          "internalType": "address",
          "name": "",
          "type": "address"
        }
      ],
      "stateMutability": "view",
      "type": "function"
    },
    {
      "inputs": [
        {
          "internalType": "address",
          "name": "owner",
          "type": "address"
        },
        {
          "internalType": "address",
          "name": "operator",
          "type": "address"
        }
      ],
      "name": "isApprovedForAll",
      "outputs": [
        {
          "internalType": "bool",
          "name": "",
          "type": "bool"
        }
      ],
      "stateMutability": "view",
      "type": "function"
    },
    {
      "inputs": [],
      "name": "name",
      "outputs": [
        {
          "internalType": "string",
          "name": "",
          "type": "string"
        }
      ],
      "stateMutability": "view",
      "type": "function"
    },
    {
      "inputs": [],
      "name": "owner",
      "outputs": [
        {
          "internalType": "address",
          "name": "",
          "type": "address"
        }
      ],
      "stateMutability": "view",
      "type": "function"
    },
    {
      "inputs": [
        {
          "internalType": "uint256",
          "name": "tokenId",
          "type": "uint256"
        }
      ],
      "name": "ownerOf",
      "outputs": [
        {
          "internalType": "address",
          "name": "",
          "type": "address"
        }
      ],
      "stateMutability": "view",
      "type": "function"
    },
    {
      "inputs": [],
      "name": "paused",
      "outputs": [
        {
          "internalType": "bool",
          "name": "",
          "type": "bool"
        }
      ],
      "stateMutability": "view",
      "type": "function"
    },
    {
      "inputs": [],
      "name": "renounceOwnership",
      "outputs": [],
      "stateMutability": "nonpayable",
      "type": "function"
    },
    {
      "inputs": [],
      "name": "reveal_timestamp",
      "outputs": [
        {
          "internalType": "uint256",
          "name": "",
          "type": "uint256"
        }
      ],
      "stateMutability": "view",
      "type": "function"
    },
    {
      "inputs": [
        {
          "internalType": "address",
          "name": "from",
          "type": "address"
        },
        {
          "internalType": "address",
          "name": "to",
          "type": "address"
        },
        {
          "internalType": "uint256",
          "name": "tokenId",
          "type": "uint256"
        }
      ],
      "name": "safeTransferFrom",
      "outputs": [],
      "stateMutability": "nonpayable",
      "type": "function"
    },
    {
      "inputs": [
        {
          "internalType": "address",
          "name": "from",
          "type": "address"
        },
        {
          "internalType": "address",
          "name": "to",
          "type": "address"
        },
        {
          "internalType": "uint256",
          "name": "tokenId",
          "type": "uint256"
        },
        {
          "internalType": "bytes",
          "name": "_data",
          "type": "bytes"
        }
      ],
      "name": "safeTransferFrom",
      "outputs": [],
      "stateMutability": "nonpayable",
      "type": "function"
    },
    {
      "inputs": [
        {
          "internalType": "address",
          "name": "operator",
          "type": "address"
        },
        {
          "internalType": "bool",
          "name": "approved",
          "type": "bool"
        }
      ],
      "name": "setApprovalForAll",
      "outputs": [],
      "stateMutability": "nonpayable",
      "type": "function"
    },
    {
      "inputs": [],
      "name": "symbol",
      "outputs": [
        {
          "internalType": "string",
          "name": "",
          "type": "string"
        }
      ],
      "stateMutability": "view",
      "type": "function"
    },
    {
      "inputs": [
        {
          "internalType": "uint256",
          "name": "index",
          "type": "uint256"
        }
      ],
      "name": "tokenByIndex",
      "outputs": [
        {
          "internalType": "uint256",
          "name": "",
          "type": "uint256"
        }
      ],
      "stateMutability": "view",
      "type": "function"
    },
    {
      "inputs": [
        {
          "internalType": "address",
          "name": "owner",
          "type": "address"
        },
        {
          "internalType": "uint256",
          "name": "index",
          "type": "uint256"
        }
      ],
      "name": "tokenOfOwnerByIndex",
      "outputs": [
        {
          "internalType": "uint256",
          "name": "",
          "type": "uint256"
        }
      ],
      "stateMutability": "view",
      "type": "function"
    },
    {
      "inputs": [
        {
          "internalType": "uint256",
          "name": "tokenId",
          "type": "uint256"
        }
      ],
      "name": "tokenURI",
      "outputs": [
        {
          "internalType": "string",
          "name": "",
          "type": "string"
        }
      ],
      "stateMutability": "view",
      "type": "function"
    },
    {
      "inputs": [],
      "name": "totalSupply",
      "outputs": [
        {
          "internalType": "uint256",
          "name": "",
          "type": "uint256"
        }
      ],
      "stateMutability": "view",
      "type": "function"
    },
    {
      "inputs": [
        {
          "internalType": "address",
          "name": "from",
          "type": "address"
        },
        {
          "internalType": "address",
          "name": "to",
          "type": "address"
        },
        {
          "internalType": "uint256",
          "name": "tokenId",
          "type": "uint256"
        }
      ],
      "name": "transferFrom",
      "outputs": [],
      "stateMutability": "nonpayable",
      "type": "function"
    },
    {
      "inputs": [
        {
          "internalType": "address",
          "name": "newOwner",
          "type": "address"
        }
      ],
      "name": "transferOwnership",
      "outputs": [],
      "stateMutability": "nonpayable",
      "type": "function"
    },
    {
      "inputs": [],
      "name": "totalMint",
      "outputs": [
        {
          "internalType": "uint256",
          "name": "",
          "type": "uint256"
        }
      ],
      "stateMutability": "view",
      "type": "function"
    },
    {
      "inputs": [
        {
          "internalType": "address",
          "name": "_to",
          "type": "address"
        },
        {
          "internalType": "uint256",
          "name": "_count",
          "type": "uint256"
        }
      ],
      "name": "mint",
      "outputs": [],
      "stateMutability": "payable",
      "type": "function"
    },
    {
      "inputs": [
        {
          "internalType": "uint256",
          "name": "_count",
          "type": "uint256"
        }
      ],
      "name": "price",
      "outputs": [
        {
          "internalType": "uint256",
          "name": "",
          "type": "uint256"
        }
      ],
      "stateMutability": "pure",
      "type": "function"
    },
    {
      "inputs": [
        {
          "internalType": "string",
          "name": "baseURI",
          "type": "string"
        }
      ],
      "name": "setBaseURI",
      "outputs": [],
      "stateMutability": "nonpayable",
      "type": "function"
    },
    {
      "inputs": [
        {
          "internalType": "address",
          "name": "_owner",
          "type": "address"
        }
      ],
      "name": "walletOfOwner",
      "outputs": [
        {
          "internalType": "uint256[]",
          "name": "",
          "type": "uint256[]"
        }
      ],
      "stateMutability": "view",
      "type": "function"
    },
    {
      "inputs": [
        {
          "internalType": "bool",
          "name": "val",
          "type": "bool"
        }
      ],
      "name": "pause",
      "outputs": [],
      "stateMutability": "nonpayable",
      "type": "function"
    },
    {
      "inputs": [],
      "name": "withdrawAll",
      "outputs": [],
      "stateMutability": "payable",
      "type": "function"
    },
    {
      "inputs": [
        {
          "internalType": "bytes4",
          "name": "interfaceId",
          "type": "bytes4"
        }
      ],
      "name": "supportsInterface",
      "outputs": [
        {
          "internalType": "bool",
          "name": "",
          "type": "bool"
        }
      ],
      "stateMutability": "view",
      "type": "function"
    }
  ],
  "bytecode": "0x60806040523480156200001157600080fd5b50604051620053b4380380620053b4833981810160405281019062000037919062000779565b6040518060400160405280600d81526020017f507564677950656e6775696e73000000000000000000000000000000000000008152506040518060400160405280600381526020017f50504700000000000000000000000000000000000000000000000000000000008152508160009080519060200190620000bb9291906200052c565b508060019080519060200190620000d49291906200052c565b505050620000f7620000eb6200013c60201b60201c565b6200014460201b60201c565b6000600a60146101000a81548160ff02191690831515021790555062000123816200020a60201b60201c565b620001356001620002b560201b60201c565b50620009f8565b600033905090565b6000600a60009054906101000a900473ffffffffffffffffffffffffffffffffffffffff16905081600a60006101000a81548173ffffffffffffffffffffffffffffffffffffffff021916908373ffffffffffffffffffffffffffffffffffffffff1602179055508173ffffffffffffffffffffffffffffffffffffffff168173ffffffffffffffffffffffffffffffffffffffff167f8be0079c531659141344cd1fd0a4f28419497f9722a3daafe3b4186f6b6457e060405160405180910390a35050565b6200021a6200013c60201b60201c565b73ffffffffffffffffffffffffffffffffffffffff16620002406200037c60201b60201c565b73ffffffffffffffffffffffffffffffffffffffff161462000299576040517f08c379a000000000000000000000000000000000000000000000000000000000815260040162000290906200082b565b60405180910390fd5b80600c9080519060200190620002b19291906200052c565b5050565b620002c56200013c60201b60201c565b73ffffffffffffffffffffffffffffffffffffffff16620002eb6200037c60201b60201c565b73ffffffffffffffffffffffffffffffffffffffff161462000344576040517f08c379a00000000000000000000000000000000000000000000000000000000081526004016200033b906200082b565b60405180910390fd5b600115158115151415620003685762000362620003a660201b60201c565b62000379565b620003786200045e60201b60201c565b5b50565b6000600a60009054906101000a900473ffffffffffffffffffffffffffffffffffffffff16905090565b620003b66200051560201b60201c565b15620003f9576040517f08c379a0000000000000000000000000000000000000000000000000000000008152600401620003f0906200089d565b60405180910390fd5b6001600a60146101000a81548160ff0219169083151502179055507f62e78cea01bee320cd4e420270b5ea74000d11b0c9f74754ebdbfc544b05a258620004456200013c60201b60201c565b60405162000454919062000904565b60405180910390a1565b6200046e6200051560201b60201c565b620004b0576040517f08c379a0000000000000000000000000000000000000000000000000000000008152600401620004a79062000971565b60405180910390fd5b6000600a60146101000a81548160ff0219169083151502179055507f5db9ee0a495bf2e6ff9c91a7834c1ba4fdd244a5e8aa4e537bd38aeae4b073aa620004fc6200013c60201b60201c565b6040516200050b919062000904565b60405180910390a1565b6000600a60149054906101000a900460ff16905090565b8280546200053a90620009c2565b90600052602060002090601f0160209004810192826200055e5760008555620005aa565b82601f106200057957805160ff1916838001178555620005aa565b82800160010185558215620005aa579182015b82811115620005a95782518255916020019190600101906200058c565b5b509050620005b99190620005bd565b5090565b5b80821115620005d8576000816000905550600101620005be565b5090565b6000604051905090565b600080fd5b600080fd5b600080fd5b600080fd5b6000601f19601f8301169050919050565b7f4e487b7100000000000000000000000000000000000000000000000000000000600052604160045260246000fd5b6200064582620005fa565b810181811067ffffffffffffffff821117156200066757620006666200060b565b5b80604052505050565b60006200067c620005dc565b90506200068a82826200063a565b919050565b600067ffffffffffffffff821115620006ad57620006ac6200060b565b5b620006b882620005fa565b9050602081019050919050565b60005b83811015620006e5578082015181840152602081019050620006c8565b83811115620006f5576000848401525b50505050565b6000620007126200070c846200068f565b62000670565b905082815260208101848484011115620007315762000730620005f5565b5b6200073e848285620006c5565b509392505050565b600082601f8301126200075e576200075d620005f0565b5b815162000770848260208601620006fb565b91505092915050565b600060208284031215620007925762000791620005e6565b5b600082015167ffffffffffffffff811115620007b357620007b2620005eb565b5b620007c18482850162000746565b91505092915050565b600082825260208201905092915050565b7f4f776e61626c653a2063616c6c6572206973206e6f7420746865206f776e6572600082015250565b600062000813602083620007ca565b91506200082082620007db565b602082019050919050565b60006020820190508181036000830152620008468162000804565b9050919050565b7f5061757361626c653a2070617573656400000000000000000000000000000000600082015250565b600062000885601083620007ca565b915062000892826200084d565b602082019050919050565b60006020820190508181036000830152620008b88162000876565b9050919050565b600073ffffffffffffffffffffffffffffffffffffffff82169050919050565b6000620008ec82620008bf565b9050919050565b620008fe81620008df565b82525050565b60006020820190506200091b6000830184620008f3565b92915050565b7f5061757361626c653a206e6f7420706175736564000000000000000000000000600082015250565b600062000959601483620007ca565b9150620009668262000921565b602082019050919050565b600060208201905081810360008301526200098c816200094a565b9050919050565b7f4e487b7100000000000000000000000000000000000000000000000000000000600052602260045260246000fd5b60006002820490506001821680620009db57607f821691505b60208210811415620009f257620009f162000993565b5b50919050565b6149ac8062000a086000396000f3fe6080604052600436106102345760003560e01c806359a7715a1161013857806395d89b41116100b0578063d547cfb71161007f578063e927fc5c11610064578063e927fc5c146107e7578063e985e9c514610812578063f2fde38b1461084f57610234565b8063d547cfb714610791578063e3e1047a146107bc57610234565b806395d89b41146106d7578063a22cb46514610702578063b88d4fde1461072b578063c87b56dd1461075457610234565b8063715018a6116101075780638ad5de28116100ec5780638ad5de28146106565780638d859f3e146106815780638da5cb5b146106ac57610234565b8063715018a614610635578063853828b61461064c57610234565b806359a7715a146105655780635c975abb146105905780636352211e146105bb57806370a08231146105f857610234565b80632f745c59116101cb57806342842e0e1161019a578063438b63001161017f578063438b6300146104c25780634f6ccce7146104ff57806355f804b31461053c57610234565b806342842e0e1461047057806342966c681461049957610234565b80632f745c59146103c15780633502a716146103fe5780633ad10ef61461042957806340c10f191461045457610234565b8063095ea7b311610207578063095ea7b31461030757806318160ddd1461033057806323b872dd1461035b57806326a49e371461038457610234565b806301ffc9a71461023957806302329a291461027657806306fdde031461029f578063081812fc146102ca575b600080fd5b34801561024557600080fd5b50610260600480360381019061025b919061302f565b610878565b60405161026d9190613077565b60405180910390f35b34801561028257600080fd5b5061029d600480360381019061029891906130be565b61088a565b005b3480156102ab57600080fd5b506102b461092c565b6040516102c19190613184565b60405180910390f35b3480156102d657600080fd5b506102f160048036038101906102ec91906131dc565b6109be565b6040516102fe919061324a565b60405180910390f35b34801561031357600080fd5b5061032e60048036038101906103299190613291565b610a43565b005b34801561033c57600080fd5b50610345610b5b565b60405161035291906132e0565b60405180910390f35b34801561036757600080fd5b50610382600480360381019061037d91906132fb565b610b68565b005b34801561039057600080fd5b506103ab60048036038101906103a691906131dc565b610bc8565b6040516103b891906132e0565b60405180910390f35b3480156103cd57600080fd5b506103e860048036038101906103e39190613291565b610beb565b6040516103f591906132e0565b60405180910390f35b34801561040a57600080fd5b50610413610c90565b60405161042091906132e0565b60405180910390f35b34801561043557600080fd5b5061043e610c96565b60405161044b919061324a565b60405180910390f35b61046e60048036038101906104699190613291565b610cae565b005b34801561047c57600080fd5b50610497600480360381019061049291906132fb565b610ee1565b005b3480156104a557600080fd5b506104c060048036038101906104bb91906131dc565b610f01565b005b3480156104ce57600080fd5b506104e960048036038101906104e4919061334e565b610f5d565b6040516104f69190613439565b60405180910390f35b34801561050b57600080fd5b50610526600480360381019061052191906131dc565b61100b565b60405161053391906132e0565b60405180910390f35b34801561054857600080fd5b50610563600480360381019061055e9190613590565b61107c565b005b34801561057157600080fd5b5061057a611112565b60405161058791906132e0565b60405180910390f35b34801561059c57600080fd5b506105a5611121565b6040516105b29190613077565b60405180910390f35b3480156105c757600080fd5b506105e260048036038101906105dd91906131dc565b611138565b6040516105ef919061324a565b60405180910390f35b34801561060457600080fd5b5061061f600480360381019061061a919061334e565b6111ea565b60405161062c91906132e0565b60405180910390f35b34801561064157600080fd5b5061064a6112a2565b005b61065461132a565b005b34801561066257600080fd5b5061066b61141d565b60405161067891906132e0565b60405180910390f35b34801561068d57600080fd5b50610696611422565b6040516106a391906132e0565b60405180910390f35b3480156106b857600080fd5b506106c161142d565b6040516106ce919061324a565b60405180910390f35b3480156106e357600080fd5b506106ec611457565b6040516106f99190613184565b60405180910390f35b34801561070e57600080fd5b50610729600480360381019061072491906135d9565b6114e9565b005b34801561073757600080fd5b50610752600480360381019061074d91906136ba565b61166a565b005b34801561076057600080fd5b5061077b600480360381019061077691906131dc565b6116cc565b6040516107889190613184565b60405180910390f35b34801561079d57600080fd5b506107a6611773565b6040516107b39190613184565b60405180910390f35b3480156107c857600080fd5b506107d1611801565b6040516107de91906132e0565b60405180910390f35b3480156107f357600080fd5b506107fc611809565b604051610809919061324a565b60405180910390f35b34801561081e57600080fd5b506108396004803603810190610834919061373d565b611821565b6040516108469190613077565b60405180910390f35b34801561085b57600080fd5b506108766004803603810190610871919061334e565b6118b5565b005b6000610883826119ad565b9050919050565b610892611a27565b73ffffffffffffffffffffffffffffffffffffffff166108b061142d565b73ffffffffffffffffffffffffffffffffffffffff1614610906576040517f08c379a00000000000000000000000000000000000000000000000000000000081526004016108fd906137c9565b60405180910390fd5b6001151581151514156109205761091b611a2f565b610929565b610928611ad2565b5b50565b60606000805461093b90613818565b80601f016020809104026020016040519081016040528092919081815260200182805461096790613818565b80156109b45780601f10610989576101008083540402835291602001916109b4565b820191906000526020600020905b81548152906001019060200180831161099757829003601f168201915b5050505050905090565b60006109c982611b74565b610a08576040517f08c379a00000000000000000000000000000000000000000000000000000000081526004016109ff906138bc565b60405180910390fd5b6004600083815260200190815260200160002060009054906101000a900473ffffffffffffffffffffffffffffffffffffffff169050919050565b6000610a4e82611138565b90508073ffffffffffffffffffffffffffffffffffffffff168373ffffffffffffffffffffffffffffffffffffffff161415610abf576040517f08c379a0000000000000000000000000000000000000000000000000000000008152600401610ab69061394e565b60405180910390fd5b8073ffffffffffffffffffffffffffffffffffffffff16610ade611a27565b73ffffffffffffffffffffffffffffffffffffffff161480610b0d5750610b0c81610b07611a27565b611821565b5b610b4c576040517f08c379a0000000000000000000000000000000000000000000000000000000008152600401610b43906139e0565b60405180910390fd5b610b568383611be0565b505050565b6000600880549050905090565b610b79610b73611a27565b82611c99565b610bb8576040517f08c379a0000000000000000000000000000000000000000000000000000000008152600401610baf90613a72565b60405180910390fd5b610bc3838383611d77565b505050565b6000610be482666a94d74f430000611fd390919063ffffffff16565b9050919050565b6000610bf6836111ea565b8210610c37576040517f08c379a0000000000000000000000000000000000000000000000000000000008152600401610c2e90613b04565b60405180910390fd5b600660008473ffffffffffffffffffffffffffffffffffffffff1673ffffffffffffffffffffffffffffffffffffffff168152602001908152602001600020600083815260200190815260200160002054905092915050565b6122b881565b73cbcc84766f2950cf867f42d766c43fb2d2ba325681565b6122b8610cb9611fe9565b1115610cfa576040517f08c379a0000000000000000000000000000000000000000000000000000000008152600401610cf190613b70565b60405180910390fd5b610d0261142d565b73ffffffffffffffffffffffffffffffffffffffff16610d20611a27565b73ffffffffffffffffffffffffffffffffffffffff1614610d8457610d43611121565b15610d83576040517f08c379a0000000000000000000000000000000000000000000000000000000008152600401610d7a90613bdc565b60405180910390fd5b5b6000610d8e611fe9565b90506122b88282610d9f9190613c2b565b1115610de0576040517f08c379a0000000000000000000000000000000000000000000000000000000008152600401610dd790613ccd565b60405180910390fd5b6122b8811115610e25576040517f08c379a0000000000000000000000000000000000000000000000000000000008152600401610e1c90613b70565b60405180910390fd5b6014821115610e69576040517f08c379a0000000000000000000000000000000000000000000000000000000008152600401610e6090613d39565b60405180910390fd5b610e7282610bc8565b341015610eb4576040517f08c379a0000000000000000000000000000000000000000000000000000000008152600401610eab90613da5565b60405180910390fd5b60005b82811015610edb57610ec884611ffa565b8080610ed390613dc5565b915050610eb7565b50505050565b610efc8383836040518060200160405280600081525061166a565b505050565b610f12610f0c611a27565b82611c99565b610f51576040517f08c379a0000000000000000000000000000000000000000000000000000000008152600401610f4890613e80565b60405180910390fd5b610f5a8161204b565b50565b60606000610f6a836111ea565b905060008167ffffffffffffffff811115610f8857610f87613465565b5b604051908082528060200260200182016040528015610fb65781602001602082028036833780820191505090505b50905060005b8281101561100057610fce8582610beb565b828281518110610fe157610fe0613ea0565b5b6020026020010181815250508080610ff890613dc5565b915050610fbc565b508092505050919050565b6000611015610b5b565b8210611056576040517f08c379a000000000000000000000000000000000000000000000000000000000815260040161104d90613f41565b60405180910390fd5b6008828154811061106a57611069613ea0565b5b90600052602060002001549050919050565b611084611a27565b73ffffffffffffffffffffffffffffffffffffffff166110a261142d565b73ffffffffffffffffffffffffffffffffffffffff16146110f8576040517f08c379a00000000000000000000000000000000000000000000000000000000081526004016110ef906137c9565b60405180910390fd5b80600c908051906020019061110e929190612f20565b5050565b600061111c611fe9565b905090565b6000600a60149054906101000a900460ff16905090565b6000806002600084815260200190815260200160002060009054906101000a900473ffffffffffffffffffffffffffffffffffffffff169050600073ffffffffffffffffffffffffffffffffffffffff168173ffffffffffffffffffffffffffffffffffffffff1614156111e1576040517f08c379a00000000000000000000000000000000000000000000000000000000081526004016111d890613fd3565b60405180910390fd5b80915050919050565b60008073ffffffffffffffffffffffffffffffffffffffff168273ffffffffffffffffffffffffffffffffffffffff16141561125b576040517f08c379a000000000000000000000000000000000000000000000000000000000815260040161125290614065565b60405180910390fd5b600360008373ffffffffffffffffffffffffffffffffffffffff1673ffffffffffffffffffffffffffffffffffffffff168152602001908152602001600020549050919050565b6112aa611a27565b73ffffffffffffffffffffffffffffffffffffffff166112c861142d565b73ffffffffffffffffffffffffffffffffffffffff161461131e576040517f08c379a0000000000000000000000000000000000000000000000000000000008152600401611315906137c9565b60405180910390fd5b611328600061215c565b565b611332611a27565b73ffffffffffffffffffffffffffffffffffffffff1661135061142d565b73ffffffffffffffffffffffffffffffffffffffff16146113a6576040517f08c379a000000000000000000000000000000000000000000000000000000000815260040161139d906137c9565b60405180910390fd5b6000479050600081116113b857600080fd5b6113fc73cbcc84766f2950cf867f42d766c43fb2d2ba32566113f760646113e9602386611fd390919063ffffffff16565b61222290919063ffffffff16565b612238565b61141a736f84fa72ca4554e0eefcb9032e5a4f1fb41b726c47612238565b50565b601481565b666a94d74f43000081565b6000600a60009054906101000a900473ffffffffffffffffffffffffffffffffffffffff16905090565b60606001805461146690613818565b80601f016020809104026020016040519081016040528092919081815260200182805461149290613818565b80156114df5780601f106114b4576101008083540402835291602001916114df565b820191906000526020600020905b8154815290600101906020018083116114c257829003601f168201915b5050505050905090565b6114f1611a27565b73ffffffffffffffffffffffffffffffffffffffff168273ffffffffffffffffffffffffffffffffffffffff16141561155f576040517f08c379a0000000000000000000000000000000000000000000000000000000008152600401611556906140d1565b60405180910390fd5b806005600061156c611a27565b73ffffffffffffffffffffffffffffffffffffffff1673ffffffffffffffffffffffffffffffffffffffff16815260200190815260200160002060008473ffffffffffffffffffffffffffffffffffffffff1673ffffffffffffffffffffffffffffffffffffffff16815260200190815260200160002060006101000a81548160ff0219169083151502179055508173ffffffffffffffffffffffffffffffffffffffff16611619611a27565b73ffffffffffffffffffffffffffffffffffffffff167f17307eab39ab6107e8899845ad3d59bd9653f200f220920489ca2b5937696c318360405161165e9190613077565b60405180910390a35050565b61167b611675611a27565b83611c99565b6116ba576040517f08c379a00000000000000000000000000000000000000000000000000000000081526004016116b190613a72565b60405180910390fd5b6116c6848484846122e9565b50505050565b60606116d782611b74565b611716576040517f08c379a000000000000000000000000000000000000000000000000000000000815260040161170d90614163565b60405180910390fd5b6000611720612345565b90506000815111611740576040518060200160405280600081525061176b565b8061174a846123d7565b60405160200161175b9291906141bf565b6040516020818303038152906040525b915050919050565b600c805461178090613818565b80601f01602080910402602001604051908101604052809291908181526020018280546117ac90613818565b80156117f95780601f106117ce576101008083540402835291602001916117f9565b820191906000526020600020905b8154815290600101906020018083116117dc57829003601f168201915b505050505081565b63610308c081565b736f84fa72ca4554e0eefcb9032e5a4f1fb41b726c81565b6000600560008473ffffffffffffffffffffffffffffffffffffffff1673ffffffffffffffffffffffffffffffffffffffff16815260200190815260200160002060008373ffffffffffffffffffffffffffffffffffffffff1673ffffffffffffffffffffffffffffffffffffffff16815260200190815260200160002060009054906101000a900460ff16905092915050565b6118bd611a27565b73ffffffffffffffffffffffffffffffffffffffff166118db61142d565b73ffffffffffffffffffffffffffffffffffffffff1614611931576040517f08c379a0000000000000000000000000000000000000000000000000000000008152600401611928906137c9565b60405180910390fd5b600073ffffffffffffffffffffffffffffffffffffffff168173ffffffffffffffffffffffffffffffffffffffff1614156119a1576040517f08c379a000000000000000000000000000000000000000000000000000000000815260040161199890614255565b60405180910390fd5b6119aa8161215c565b50565b60007f780e9d63000000000000000000000000000000000000000000000000000000007bffffffffffffffffffffffffffffffffffffffffffffffffffffffff1916827bffffffffffffffffffffffffffffffffffffffffffffffffffffffff19161480611a205750611a1f82612538565b5b9050919050565b600033905090565b611a37611121565b15611a77576040517f08c379a0000000000000000000000000000000000000000000000000000000008152600401611a6e90613bdc565b60405180910390fd5b6001600a60146101000a81548160ff0219169083151502179055507f62e78cea01bee320cd4e420270b5ea74000d11b0c9f74754ebdbfc544b05a258611abb611a27565b604051611ac8919061324a565b60405180910390a1565b611ada611121565b611b19576040517f08c379a0000000000000000000000000000000000000000000000000000000008152600401611b10906142c1565b60405180910390fd5b6000600a60146101000a81548160ff0219169083151502179055507f5db9ee0a495bf2e6ff9c91a7834c1ba4fdd244a5e8aa4e537bd38aeae4b073aa611b5d611a27565b604051611b6a919061324a565b60405180910390a1565b60008073ffffffffffffffffffffffffffffffffffffffff166002600084815260200190815260200160002060009054906101000a900473ffffffffffffffffffffffffffffffffffffffff1673ffffffffffffffffffffffffffffffffffffffff1614159050919050565b816004600083815260200190815260200160002060006101000a81548173ffffffffffffffffffffffffffffffffffffffff021916908373ffffffffffffffffffffffffffffffffffffffff160217905550808273ffffffffffffffffffffffffffffffffffffffff16611c5383611138565b73ffffffffffffffffffffffffffffffffffffffff167f8c5be1e5ebec7d5bd14f71427d1e84f3dd0314c0f7b2291e5b200ac8c7c3b92560405160405180910390a45050565b6000611ca482611b74565b611ce3576040517f08c379a0000000000000000000000000000000000000000000000000000000008152600401611cda90614353565b60405180910390fd5b6000611cee83611138565b90508073ffffffffffffffffffffffffffffffffffffffff168473ffffffffffffffffffffffffffffffffffffffff161480611d5d57508373ffffffffffffffffffffffffffffffffffffffff16611d45846109be565b73ffffffffffffffffffffffffffffffffffffffff16145b80611d6e5750611d6d8185611821565b5b91505092915050565b8273ffffffffffffffffffffffffffffffffffffffff16611d9782611138565b73ffffffffffffffffffffffffffffffffffffffff1614611ded576040517f08c379a0000000000000000000000000000000000000000000000000000000008152600401611de4906143e5565b60405180910390fd5b600073ffffffffffffffffffffffffffffffffffffffff168273ffffffffffffffffffffffffffffffffffffffff161415611e5d576040517f08c379a0000000000000000000000000000000000000000000000000000000008152600401611e5490614477565b60405180910390fd5b611e6883838361261a565b611e73600082611be0565b6001600360008573ffffffffffffffffffffffffffffffffffffffff1673ffffffffffffffffffffffffffffffffffffffff1681526020019081526020016000206000828254611ec39190614497565b925050819055506001600360008473ffffffffffffffffffffffffffffffffffffffff1673ffffffffffffffffffffffffffffffffffffffff1681526020019081526020016000206000828254611f1a9190613c2b565b92505081905550816002600083815260200190815260200160002060006101000a81548173ffffffffffffffffffffffffffffffffffffffff021916908373ffffffffffffffffffffffffffffffffffffffff160217905550808273ffffffffffffffffffffffffffffffffffffffff168473ffffffffffffffffffffffffffffffffffffffff167fddf252ad1be2c89b69c2b068fc378daa952ba7f163c4a11628f55a4df523b3ef60405160405180910390a4505050565b60008183611fe191906144cb565b905092915050565b6000611ff5600b61262a565b905090565b6000612004611fe9565b9050612010600b612638565b61201a828261264e565b807f645f26e653c951cec836533f8fe0616d301c20a17153debc17d7c3dbe4f32b2860405160405180910390a25050565b600061205682611138565b90506120648160008461261a565b61206f600083611be0565b6001600360008373ffffffffffffffffffffffffffffffffffffffff1673ffffffffffffffffffffffffffffffffffffffff16815260200190815260200160002060008282546120bf9190614497565b925050819055506002600083815260200190815260200160002060006101000a81549073ffffffffffffffffffffffffffffffffffffffff021916905581600073ffffffffffffffffffffffffffffffffffffffff168273ffffffffffffffffffffffffffffffffffffffff167fddf252ad1be2c89b69c2b068fc378daa952ba7f163c4a11628f55a4df523b3ef60405160405180910390a45050565b6000600a60009054906101000a900473ffffffffffffffffffffffffffffffffffffffff16905081600a60006101000a81548173ffffffffffffffffffffffffffffffffffffffff021916908373ffffffffffffffffffffffffffffffffffffffff1602179055508173ffffffffffffffffffffffffffffffffffffffff168173ffffffffffffffffffffffffffffffffffffffff167f8be0079c531659141344cd1fd0a4f28419497f9722a3daafe3b4186f6b6457e060405160405180910390a35050565b600081836122309190614554565b905092915050565b60008273ffffffffffffffffffffffffffffffffffffffff168260405161225e906145b6565b60006040518083038185875af1925050503d806000811461229b576040519150601f19603f3d011682016040523d82523d6000602084013e6122a0565b606091505b50509050806122e4576040517f08c379a00000000000000000000000000000000000000000000000000000000081526004016122db90614617565b60405180910390fd5b505050565b6122f4848484611d77565b6123008484848461266c565b61233f576040517f08c379a0000000000000000000000000000000000000000000000000000000008152600401612336906146a9565b60405180910390fd5b50505050565b6060600c805461235490613818565b80601f016020809104026020016040519081016040528092919081815260200182805461238090613818565b80156123cd5780601f106123a2576101008083540402835291602001916123cd565b820191906000526020600020905b8154815290600101906020018083116123b057829003601f168201915b5050505050905090565b6060600082141561241f576040518060400160405280600181526020017f30000000000000000000000000000000000000000000000000000000000000008152509050612533565b600082905060005b6000821461245157808061243a90613dc5565b915050600a8261244a9190614554565b9150612427565b60008167ffffffffffffffff81111561246d5761246c613465565b5b6040519080825280601f01601f19166020018201604052801561249f5781602001600182028036833780820191505090505b5090505b6000851461252c576001826124b89190614497565b9150600a856124c791906146c9565b60306124d39190613c2b565b60f81b8183815181106124e9576124e8613ea0565b5b60200101907effffffffffffffffffffffffffffffffffffffffffffffffffffffffffffff1916908160001a905350600a856125259190614554565b94506124a3565b8093505050505b919050565b60007f80ac58cd000000000000000000000000000000000000000000000000000000007bffffffffffffffffffffffffffffffffffffffffffffffffffffffff1916827bffffffffffffffffffffffffffffffffffffffffffffffffffffffff1916148061260357507f5b5e139f000000000000000000000000000000000000000000000000000000007bffffffffffffffffffffffffffffffffffffffffffffffffffffffff1916827bffffffffffffffffffffffffffffffffffffffffffffffffffffffff1916145b80612613575061261282612803565b5b9050919050565b61262583838361286d565b505050565b600081600001549050919050565b6001816000016000828254019250508190555050565b6126688282604051806020016040528060008152506128c5565b5050565b600061268d8473ffffffffffffffffffffffffffffffffffffffff16612920565b156127f6578373ffffffffffffffffffffffffffffffffffffffff1663150b7a026126b6611a27565b8786866040518563ffffffff1660e01b81526004016126d8949392919061474f565b602060405180830381600087803b1580156126f257600080fd5b505af192505050801561272357506040513d601f19601f8201168201806040525081019061272091906147b0565b60015b6127a6573d8060008114612753576040519150601f19603f3d011682016040523d82523d6000602084013e612758565b606091505b5060008151141561279e576040517f08c379a0000000000000000000000000000000000000000000000000000000008152600401612795906146a9565b60405180910390fd5b805181602001fd5b63150b7a0260e01b7bffffffffffffffffffffffffffffffffffffffffffffffffffffffff1916817bffffffffffffffffffffffffffffffffffffffffffffffffffffffff1916149150506127fb565b600190505b949350505050565b60007f01ffc9a7000000000000000000000000000000000000000000000000000000007bffffffffffffffffffffffffffffffffffffffffffffffffffffffff1916827bffffffffffffffffffffffffffffffffffffffffffffffffffffffff1916149050919050565b612878838383612933565b612880611121565b156128c0576040517f08c379a00000000000000000000000000000000000000000000000000000000081526004016128b79061484f565b60405180910390fd5b505050565b6128cf8383612a47565b6128dc600084848461266c565b61291b576040517f08c379a0000000000000000000000000000000000000000000000000000000008152600401612912906146a9565b60405180910390fd5b505050565b600080823b905060008111915050919050565b61293e838383612c15565b600073ffffffffffffffffffffffffffffffffffffffff168373ffffffffffffffffffffffffffffffffffffffff1614156129815761297c81612c1a565b6129c0565b8173ffffffffffffffffffffffffffffffffffffffff168373ffffffffffffffffffffffffffffffffffffffff16146129bf576129be8382612c63565b5b5b600073ffffffffffffffffffffffffffffffffffffffff168273ffffffffffffffffffffffffffffffffffffffff161415612a03576129fe81612dd0565b612a42565b8273ffffffffffffffffffffffffffffffffffffffff168273ffffffffffffffffffffffffffffffffffffffff1614612a4157612a408282612ea1565b5b5b505050565b600073ffffffffffffffffffffffffffffffffffffffff168273ffffffffffffffffffffffffffffffffffffffff161415612ab7576040517f08c379a0000000000000000000000000000000000000000000000000000000008152600401612aae906148bb565b60405180910390fd5b612ac081611b74565b15612b00576040517f08c379a0000000000000000000000000000000000000000000000000000000008152600401612af790614927565b60405180910390fd5b612b0c6000838361261a565b6001600360008473ffffffffffffffffffffffffffffffffffffffff1673ffffffffffffffffffffffffffffffffffffffff1681526020019081526020016000206000828254612b5c9190613c2b565b92505081905550816002600083815260200190815260200160002060006101000a81548173ffffffffffffffffffffffffffffffffffffffff021916908373ffffffffffffffffffffffffffffffffffffffff160217905550808273ffffffffffffffffffffffffffffffffffffffff16600073ffffffffffffffffffffffffffffffffffffffff167fddf252ad1be2c89b69c2b068fc378daa952ba7f163c4a11628f55a4df523b3ef60405160405180910390a45050565b505050565b6008805490506009600083815260200190815260200160002081905550600881908060018154018082558091505060019003906000526020600020016000909190919091505550565b60006001612c70846111ea565b612c7a9190614497565b9050600060076000848152602001908152602001600020549050818114612d5f576000600660008673ffffffffffffffffffffffffffffffffffffffff1673ffffffffffffffffffffffffffffffffffffffff168152602001908152602001600020600084815260200190815260200160002054905080600660008773ffffffffffffffffffffffffffffffffffffffff1673ffffffffffffffffffffffffffffffffffffffff168152602001908152602001600020600084815260200190815260200160002081905550816007600083815260200190815260200160002081905550505b6007600084815260200190815260200160002060009055600660008573ffffffffffffffffffffffffffffffffffffffff1673ffffffffffffffffffffffffffffffffffffffff16815260200190815260200160002060008381526020019081526020016000206000905550505050565b60006001600880549050612de49190614497565b9050600060096000848152602001908152602001600020549050600060088381548110612e1457612e13613ea0565b5b906000526020600020015490508060088381548110612e3657612e35613ea0565b5b906000526020600020018190555081600960008381526020019081526020016000208190555060096000858152602001908152602001600020600090556008805480612e8557612e84614947565b5b6001900381819060005260206000200160009055905550505050565b6000612eac836111ea565b905081600660008573ffffffffffffffffffffffffffffffffffffffff1673ffffffffffffffffffffffffffffffffffffffff168152602001908152602001600020600083815260200190815260200160002081905550806007600084815260200190815260200160002081905550505050565b828054612f2c90613818565b90600052602060002090601f016020900481019282612f4e5760008555612f95565b82601f10612f6757805160ff1916838001178555612f95565b82800160010185558215612f95579182015b82811115612f94578251825591602001919060010190612f79565b5b509050612fa29190612fa6565b5090565b5b80821115612fbf576000816000905550600101612fa7565b5090565b6000604051905090565b600080fd5b600080fd5b60007fffffffff0000000000000000000000000000000000000000000000000000000082169050919050565b61300c81612fd7565b811461301757600080fd5b50565b60008135905061302981613003565b92915050565b60006020828403121561304557613044612fcd565b5b60006130538482850161301a565b91505092915050565b60008115159050919050565b6130718161305c565b82525050565b600060208201905061308c6000830184613068565b92915050565b61309b8161305c565b81146130a657600080fd5b50565b6000813590506130b881613092565b92915050565b6000602082840312156130d4576130d3612fcd565b5b60006130e2848285016130a9565b91505092915050565b600081519050919050565b600082825260208201905092915050565b60005b8381101561312557808201518184015260208101905061310a565b83811115613134576000848401525b50505050565b6000601f19601f8301169050919050565b6000613156826130eb565b61316081856130f6565b9350613170818560208601613107565b6131798161313a565b840191505092915050565b6000602082019050818103600083015261319e818461314b565b905092915050565b6000819050919050565b6131b9816131a6565b81146131c457600080fd5b50565b6000813590506131d6816131b0565b92915050565b6000602082840312156131f2576131f1612fcd565b5b6000613200848285016131c7565b91505092915050565b600073ffffffffffffffffffffffffffffffffffffffff82169050919050565b600061323482613209565b9050919050565b61324481613229565b82525050565b600060208201905061325f600083018461323b565b92915050565b61326e81613229565b811461327957600080fd5b50565b60008135905061328b81613265565b92915050565b600080604083850312156132a8576132a7612fcd565b5b60006132b68582860161327c565b92505060206132c7858286016131c7565b9150509250929050565b6132da816131a6565b82525050565b60006020820190506132f560008301846132d1565b92915050565b60008060006060848603121561331457613313612fcd565b5b60006133228682870161327c565b93505060206133338682870161327c565b9250506040613344868287016131c7565b9150509250925092565b60006020828403121561336457613363612fcd565b5b60006133728482850161327c565b91505092915050565b600081519050919050565b600082825260208201905092915050565b6000819050602082019050919050565b6133b0816131a6565b82525050565b60006133c283836133a7565b60208301905092915050565b6000602082019050919050565b60006133e68261337b565b6133f08185613386565b93506133fb83613397565b8060005b8381101561342c57815161341388826133b6565b975061341e836133ce565b9250506001810190506133ff565b5085935050505092915050565b6000602082019050818103600083015261345381846133db565b905092915050565b600080fd5b600080fd5b7f4e487b7100000000000000000000000000000000000000000000000000000000600052604160045260246000fd5b61349d8261313a565b810181811067ffffffffffffffff821117156134bc576134bb613465565b5b80604052505050565b60006134cf612fc3565b90506134db8282613494565b919050565b600067ffffffffffffffff8211156134fb576134fa613465565b5b6135048261313a565b9050602081019050919050565b82818337600083830152505050565b600061353361352e846134e0565b6134c5565b90508281526020810184848401111561354f5761354e613460565b5b61355a848285613511565b509392505050565b600082601f8301126135775761357661345b565b5b8135613587848260208601613520565b91505092915050565b6000602082840312156135a6576135a5612fcd565b5b600082013567ffffffffffffffff8111156135c4576135c3612fd2565b5b6135d084828501613562565b91505092915050565b600080604083850312156135f0576135ef612fcd565b5b60006135fe8582860161327c565b925050602061360f858286016130a9565b9150509250929050565b600067ffffffffffffffff82111561363457613633613465565b5b61363d8261313a565b9050602081019050919050565b600061365d61365884613619565b6134c5565b90508281526020810184848401111561367957613678613460565b5b613684848285613511565b509392505050565b600082601f8301126136a1576136a061345b565b5b81356136b184826020860161364a565b91505092915050565b600080600080608085870312156136d4576136d3612fcd565b5b60006136e28782880161327c565b94505060206136f38782880161327c565b9350506040613704878288016131c7565b925050606085013567ffffffffffffffff81111561372557613724612fd2565b5b6137318782880161368c565b91505092959194509250565b6000806040838503121561375457613753612fcd565b5b60006137628582860161327c565b92505060206137738582860161327c565b9150509250929050565b7f4f776e61626c653a2063616c6c6572206973206e6f7420746865206f776e6572600082015250565b60006137b36020836130f6565b91506137be8261377d565b602082019050919050565b600060208201905081810360008301526137e2816137a6565b9050919050565b7f4e487b7100000000000000000000000000000000000000000000000000000000600052602260045260246000fd5b6000600282049050600182168061383057607f821691505b60208210811415613844576138436137e9565b5b50919050565b7f4552433732313a20617070726f76656420717565727920666f72206e6f6e657860008201527f697374656e7420746f6b656e0000000000000000000000000000000000000000602082015250565b60006138a6602c836130f6565b91506138b18261384a565b604082019050919050565b600060208201905081810360008301526138d581613899565b9050919050565b7f4552433732313a20617070726f76616c20746f2063757272656e74206f776e6560008201527f7200000000000000000000000000000000000000000000000000000000000000602082015250565b60006139386021836130f6565b9150613943826138dc565b604082019050919050565b600060208201905081810360008301526139678161392b565b9050919050565b7f4552433732313a20617070726f76652063616c6c6572206973206e6f74206f7760008201527f6e6572206e6f7220617070726f76656420666f7220616c6c0000000000000000602082015250565b60006139ca6038836130f6565b91506139d58261396e565b604082019050919050565b600060208201905081810360008301526139f9816139bd565b9050919050565b7f4552433732313a207472616e736665722063616c6c6572206973206e6f74206f60008201527f776e6572206e6f7220617070726f766564000000000000000000000000000000602082015250565b6000613a5c6031836130f6565b9150613a6782613a00565b604082019050919050565b60006020820190508181036000830152613a8b81613a4f565b9050919050565b7f455243373231456e756d657261626c653a206f776e657220696e646578206f7560008201527f74206f6620626f756e6473000000000000000000000000000000000000000000602082015250565b6000613aee602b836130f6565b9150613af982613a92565b604082019050919050565b60006020820190508181036000830152613b1d81613ae1565b9050919050565b7f53616c6520656e64000000000000000000000000000000000000000000000000600082015250565b6000613b5a6008836130f6565b9150613b6582613b24565b602082019050919050565b60006020820190508181036000830152613b8981613b4d565b9050919050565b7f5061757361626c653a2070617573656400000000000000000000000000000000600082015250565b6000613bc66010836130f6565b9150613bd182613b90565b602082019050919050565b60006020820190508181036000830152613bf581613bb9565b9050919050565b7f4e487b7100000000000000000000000000000000000000000000000000000000600052601160045260246000fd5b6000613c36826131a6565b9150613c41836131a6565b9250827fffffffffffffffffffffffffffffffffffffffffffffffffffffffffffffffff03821115613c7657613c75613bfc565b5b828201905092915050565b7f4d6178206c696d69740000000000000000000000000000000000000000000000600082015250565b6000613cb76009836130f6565b9150613cc282613c81565b602082019050919050565b60006020820190508181036000830152613ce681613caa565b9050919050565b7f45786365656473206e756d626572000000000000000000000000000000000000600082015250565b6000613d23600e836130f6565b9150613d2e82613ced565b602082019050919050565b60006020820190508181036000830152613d5281613d16565b9050919050565b7f56616c75652062656c6f77207072696365000000000000000000000000000000600082015250565b6000613d8f6011836130f6565b9150613d9a82613d59565b602082019050919050565b60006020820190508181036000830152613dbe81613d82565b9050919050565b6000613dd0826131a6565b91507fffffffffffffffffffffffffffffffffffffffffffffffffffffffffffffffff821415613e0357613e02613bfc565b5b600182019050919050565b7f4552433732314275726e61626c653a2063616c6c6572206973206e6f74206f7760008201527f6e6572206e6f7220617070726f76656400000000000000000000000000000000602082015250565b6000613e6a6030836130f6565b9150613e7582613e0e565b604082019050919050565b60006020820190508181036000830152613e9981613e5d565b9050919050565b7f4e487b7100000000000000000000000000000000000000000000000000000000600052603260045260246000fd5b7f455243373231456e756d657261626c653a20676c6f62616c20696e646578206f60008201527f7574206f6620626f756e64730000000000000000000000000000000000000000602082015250565b6000613f2b602c836130f6565b9150613f3682613ecf565b604082019050919050565b60006020820190508181036000830152613f5a81613f1e565b9050919050565b7f4552433732313a206f776e657220717565727920666f72206e6f6e657869737460008201527f656e7420746f6b656e0000000000000000000000000000000000000000000000602082015250565b6000613fbd6029836130f6565b9150613fc882613f61565b604082019050919050565b60006020820190508181036000830152613fec81613fb0565b9050919050565b7f4552433732313a2062616c616e636520717565727920666f7220746865207a6560008201527f726f206164647265737300000000000000000000000000000000000000000000602082015250565b600061404f602a836130f6565b915061405a82613ff3565b604082019050919050565b6000602082019050818103600083015261407e81614042565b9050919050565b7f4552433732313a20617070726f766520746f2063616c6c657200000000000000600082015250565b60006140bb6019836130f6565b91506140c682614085565b602082019050919050565b600060208201905081810360008301526140ea816140ae565b9050919050565b7f4552433732314d657461646174613a2055524920717565727920666f72206e6f60008201527f6e6578697374656e7420746f6b656e0000000000000000000000000000000000602082015250565b600061414d602f836130f6565b9150614158826140f1565b604082019050919050565b6000602082019050818103600083015261417c81614140565b9050919050565b600081905092915050565b6000614199826130eb565b6141a38185614183565b93506141b3818560208601613107565b80840191505092915050565b60006141cb828561418e565b91506141d7828461418e565b91508190509392505050565b7f4f776e61626c653a206e6577206f776e657220697320746865207a65726f206160008201527f6464726573730000000000000000000000000000000000000000000000000000602082015250565b600061423f6026836130f6565b915061424a826141e3565b604082019050919050565b6000602082019050818103600083015261426e81614232565b9050919050565b7f5061757361626c653a206e6f7420706175736564000000000000000000000000600082015250565b60006142ab6014836130f6565b91506142b682614275565b602082019050919050565b600060208201905081810360008301526142da8161429e565b9050919050565b7f4552433732313a206f70657261746f7220717565727920666f72206e6f6e657860008201527f697374656e7420746f6b656e0000000000000000000000000000000000000000602082015250565b600061433d602c836130f6565b9150614348826142e1565b604082019050919050565b6000602082019050818103600083015261436c81614330565b9050919050565b7f4552433732313a207472616e73666572206f6620746f6b656e2074686174206960008201527f73206e6f74206f776e0000000000000000000000000000000000000000000000602082015250565b60006143cf6029836130f6565b91506143da82614373565b604082019050919050565b600060208201905081810360008301526143fe816143c2565b9050919050565b7f4552433732313a207472616e7366657220746f20746865207a65726f2061646460008201527f7265737300000000000000000000000000000000000000000000000000000000602082015250565b60006144616024836130f6565b915061446c82614405565b604082019050919050565b6000602082019050818103600083015261449081614454565b9050919050565b60006144a2826131a6565b91506144ad836131a6565b9250828210156144c0576144bf613bfc565b5b828203905092915050565b60006144d6826131a6565b91506144e1836131a6565b9250817fffffffffffffffffffffffffffffffffffffffffffffffffffffffffffffffff048311821515161561451a57614519613bfc565b5b828202905092915050565b7f4e487b7100000000000000000000000000000000000000000000000000000000600052601260045260246000fd5b600061455f826131a6565b915061456a836131a6565b92508261457a57614579614525565b5b828204905092915050565b600081905092915050565b50565b60006145a0600083614585565b91506145ab82614590565b600082019050919050565b60006145c182614593565b9150819050919050565b7f5472616e73666572206661696c65642e00000000000000000000000000000000600082015250565b60006146016010836130f6565b915061460c826145cb565b602082019050919050565b60006020820190508181036000830152614630816145f4565b9050919050565b7f4552433732313a207472616e7366657220746f206e6f6e20455243373231526560008201527f63656976657220696d706c656d656e7465720000000000000000000000000000602082015250565b60006146936032836130f6565b915061469e82614637565b604082019050919050565b600060208201905081810360008301526146c281614686565b9050919050565b60006146d4826131a6565b91506146df836131a6565b9250826146ef576146ee614525565b5b828206905092915050565b600081519050919050565b600082825260208201905092915050565b6000614721826146fa565b61472b8185614705565b935061473b818560208601613107565b6147448161313a565b840191505092915050565b6000608082019050614764600083018761323b565b614771602083018661323b565b61477e60408301856132d1565b81810360608301526147908184614716565b905095945050505050565b6000815190506147aa81613003565b92915050565b6000602082840312156147c6576147c5612fcd565b5b60006147d48482850161479b565b91505092915050565b7f4552433732315061757361626c653a20746f6b656e207472616e73666572207760008201527f68696c6520706175736564000000000000000000000000000000000000000000602082015250565b6000614839602b836130f6565b9150614844826147dd565b604082019050919050565b600060208201905081810360008301526148688161482c565b9050919050565b7f4552433732313a206d696e7420746f20746865207a65726f2061646472657373600082015250565b60006148a56020836130f6565b91506148b08261486f565b602082019050919050565b600060208201905081810360008301526148d481614898565b9050919050565b7f4552433732313a20746f6b656e20616c7265616479206d696e74656400000000600082015250565b6000614911601c836130f6565b915061491c826148db565b602082019050919050565b6000602082019050818103600083015261494081614904565b9050919050565b7f4e487b7100000000000000000000000000000000000000000000000000000000600052603160045260246000fdfea26469706673582212209e83a6ba2804e619e01c4ad363a2b9ed43214d27a4c1c9e0c2d315ac648892d564736f6c63430008090033",
  "immutableReferences": {},
  "source": "// SPDX-License-Identifier: MIT\r\npragma solidity ^0.8.0;\r\n\r\nimport \"@openzeppelin/contracts/token/ERC721/ERC721.sol\";\r\nimport \"@openzeppelin/contracts/token/ERC721/extensions/ERC721Enumerable.sol\";\r\nimport \"@openzeppelin/contracts/token/ERC721/extensions/ERC721Burnable.sol\";\r\nimport \"@openzeppelin/contracts/access/Ownable.sol\";\r\nimport \"@openzeppelin/contracts/utils/math/SafeMath.sol\";\r\nimport \"@openzeppelin/contracts/utils/Counters.sol\";\r\nimport \"@openzeppelin/contracts/token/ERC721/extensions/ERC721Pausable.sol\";\r\ncontract GolfPunks is ERC721Enumerable, Ownable, ERC721Burnable, ERC721Pausable {\r\n    using SafeMath for uint256;\r\n    using Counters for Counters.Counter;\r\n\r\n    Counters.Counter private _tokenIdTracker;\r\n\r\n    uint256 public constant MAX_ELEMENTS = 8888;\r\n    uint256 public constant PRICE = 3 * 10**16;\r\n    uint256 public constant MAX_BY_MINT = 20;\r\n    uint256 public constant reveal_timestamp = 1627588800; // Thu Jul 29 2021 20:00:00 GMT+0000\r\n    address public constant creatorAddress = 0x6F84Fa72Ca4554E0eEFcB9032e5A4F1FB41b726C;\r\n    address public constant devAddress = 0xcBCc84766F2950CF867f42D766c43fB2D2Ba3256;\r\n    string public baseTokenURI;\r\n\r\n    event CreatePenguin(uint256 indexed id);\r\n    constructor(string memory baseURI) ERC721(\"PudgyPenguins\", \"PPG\") {\r\n        setBaseURI(baseURI);\r\n        pause(true);\r\n    }\r\n\r\n    modifier saleIsOpen {\r\n        require(_totalSupply() <= MAX_ELEMENTS, \"Sale end\");\r\n        if (_msgSender() != owner()) {\r\n            require(!paused(), \"Pausable: paused\");\r\n        }\r\n        _;\r\n    }\r\n    function _totalSupply() internal view returns (uint) {\r\n        return _tokenIdTracker.current();\r\n    }\r\n    function totalMint() public view returns (uint256) {\r\n        return _totalSupply();\r\n    }\r\n    function mint(address _to, uint256 _count) public payable saleIsOpen {\r\n        uint256 total = _totalSupply();\r\n        require(total + _count <= MAX_ELEMENTS, \"Max limit\");\r\n        require(total <= MAX_ELEMENTS, \"Sale end\");\r\n        require(_count <= MAX_BY_MINT, \"Exceeds number\");\r\n        require(msg.value >= price(_count), \"Value below price\");\r\n\r\n        for (uint256 i = 0; i < _count; i++) {\r\n            _mintAnElement(_to);\r\n        }\r\n    }\r\n    function _mintAnElement(address _to) private {\r\n        uint id = _totalSupply();\r\n        _tokenIdTracker.increment();\r\n        _safeMint(_to, id);\r\n        emit CreatePenguin(id);\r\n    }\r\n    function price(uint256 _count) public pure returns (uint256) {\r\n        return PRICE.mul(_count);\r\n    }\r\n\r\n    function _baseURI() internal view virtual override returns (string memory) {\r\n        return baseTokenURI;\r\n    }\r\n\r\n    function setBaseURI(string memory baseURI) public onlyOwner {\r\n        baseTokenURI = baseURI;\r\n    }\r\n\r\n    function walletOfOwner(address _owner) external view returns (uint256[] memory) {\r\n        uint256 tokenCount = balanceOf(_owner);\r\n\r\n        uint256[] memory tokensId = new uint256[](tokenCount);\r\n        for (uint256 i = 0; i < tokenCount; i++) {\r\n            tokensId[i] = tokenOfOwnerByIndex(_owner, i);\r\n        }\r\n\r\n        return tokensId;\r\n    }\r\n\r\n    function pause(bool val) public onlyOwner {\r\n        if (val == true) {\r\n            _pause();\r\n            return;\r\n        }\r\n        _unpause();\r\n    }\r\n\r\n    function withdrawAll() public payable onlyOwner {\r\n        uint256 balance = address(this).balance;\r\n        require(balance > 0);\r\n        _widthdraw(devAddress, balance.mul(35).div(100));\r\n        _widthdraw(creatorAddress, address(this).balance);\r\n    }\r\n\r\n    function _widthdraw(address _address, uint256 _amount) private {\r\n        (bool success, ) = _address.call{value: _amount}(\"\");\r\n        require(success, \"Transfer failed.\");\r\n    }\r\n\r\n    function _beforeTokenTransfer(\r\n        address from,\r\n        address to,\r\n        uint256 tokenId\r\n    ) internal virtual override(ERC721, ERC721Enumerable, ERC721Pausable) {\r\n        super._beforeTokenTransfer(from, to, tokenId);\r\n    }\r\n\r\n    function supportsInterface(bytes4 interfaceId) public view virtual override(ERC721, ERC721Enumerable) returns (bool) {\r\n        return super.supportsInterface(interfaceId);\r\n    }\r\n    \r\n}",
  "sourcePath": "/home/einsfar/my tool/golf-nft/contracts/GolfPunks.sol",
  "compiler": {
    "name": "solc",
    "version": "0.8.9+commit.e5eed63a.Emscripten.clang"
  },
  "schemaVersion": "3.4.1",
  "updatedAt": "2021-10-10T00:07:24.944Z",
  "devdoc": {
    "kind": "dev",
    "methods": {
      "approve(address,uint256)": {
        "details": "See {IERC721-approve}."
      },
      "balanceOf(address)": {
        "details": "See {IERC721-balanceOf}."
      },
      "burn(uint256)": {
        "details": "Burns `tokenId`. See {ERC721-_burn}. Requirements: - The caller must own `tokenId` or be an approved operator."
      },
      "getApproved(uint256)": {
        "details": "See {IERC721-getApproved}."
      },
      "isApprovedForAll(address,address)": {
        "details": "See {IERC721-isApprovedForAll}."
      },
      "name()": {
        "details": "See {IERC721Metadata-name}."
      },
      "owner()": {
        "details": "Returns the address of the current owner."
      },
      "ownerOf(uint256)": {
        "details": "See {IERC721-ownerOf}."
      },
      "paused()": {
        "details": "Returns true if the contract is paused, and false otherwise."
      },
      "renounceOwnership()": {
        "details": "Leaves the contract without owner. It will not be possible to call `onlyOwner` functions anymore. Can only be called by the current owner. NOTE: Renouncing ownership will leave the contract without an owner, thereby removing any functionality that is only available to the owner."
      },
      "safeTransferFrom(address,address,uint256)": {
        "details": "See {IERC721-safeTransferFrom}."
      },
      "safeTransferFrom(address,address,uint256,bytes)": {
        "details": "See {IERC721-safeTransferFrom}."
      },
      "setApprovalForAll(address,bool)": {
        "details": "See {IERC721-setApprovalForAll}."
      },
      "symbol()": {
        "details": "See {IERC721Metadata-symbol}."
      },
      "tokenByIndex(uint256)": {
        "details": "See {IERC721Enumerable-tokenByIndex}."
      },
      "tokenOfOwnerByIndex(address,uint256)": {
        "details": "See {IERC721Enumerable-tokenOfOwnerByIndex}."
      },
      "tokenURI(uint256)": {
        "details": "See {IERC721Metadata-tokenURI}."
      },
      "totalSupply()": {
        "details": "See {IERC721Enumerable-totalSupply}."
      },
      "transferFrom(address,address,uint256)": {
        "details": "See {IERC721-transferFrom}."
      },
      "transferOwnership(address)": {
        "details": "Transfers ownership of the contract to a new account (`newOwner`). Can only be called by the current owner."
      }
    },
    "version": 1
  },
  "userdoc": {
    "kind": "user",
    "methods": {},
    "version": 1
  }
}